{
  "contractName": "artistryChain",
  "abi": [
    {
      "anonymous": false,
      "inputs": [
        {
          "indexed": false,
          "internalType": "uint32",
          "name": "userId",
          "type": "uint32"
        }
      ],
      "name": "NewParticipant",
      "type": "event"
    },
    {
      "anonymous": false,
      "inputs": [
        {
          "indexed": false,
          "internalType": "uint32",
          "name": "artworkId",
          "type": "uint32"
        }
      ],
      "name": "TransferOwnership",
      "type": "event"
    },
    {
      "inputs": [
        {
          "internalType": "uint32",
          "name": "",
          "type": "uint32"
        },
        {
          "internalType": "uint256",
          "name": "",
          "type": "uint256"
        }
      ],
      "name": "artworkTrack",
      "outputs": [
        {
          "internalType": "uint32",
          "name": "",
          "type": "uint32"
        }
      ],
      "stateMutability": "view",
      "type": "function",
      "constant": true
    },
    {
      "inputs": [
        {
          "internalType": "uint32",
          "name": "",
          "type": "uint32"
        }
      ],
      "name": "artworks",
      "outputs": [
        {
          "internalType": "string",
          "name": "artworkName",
          "type": "string"
        },
        {
          "internalType": "string",
          "name": "serialNumber",
          "type": "string"
        },
        {
          "internalType": "address",
          "name": "artworkOwner",
          "type": "address"
        },
        {
          "internalType": "uint32",
          "name": "cost",
          "type": "uint32"
        },
        {
          "internalType": "uint32",
          "name": "atyTimeStamp",
          "type": "uint32"
        },
        {
          "internalType": "uint256",
          "name": "gene",
          "type": "uint256"
        }
      ],
      "stateMutability": "view",
      "type": "function",
      "constant": true
    },
    {
      "inputs": [
        {
          "internalType": "uint32",
          "name": "",
          "type": "uint32"
        }
      ],
      "name": "ownerships",
      "outputs": [
        {
          "internalType": "uint32",
          "name": "artwork_Id",
          "type": "uint32"
        },
        {
          "internalType": "uint32",
          "name": "ownerId",
          "type": "uint32"
        },
        {
          "internalType": "uint32",
          "name": "trdTimeStamp",
          "type": "uint32"
        },
        {
          "internalType": "address",
          "name": "artworkOwner",
          "type": "address"
        }
      ],
      "stateMutability": "view",
      "type": "function",
      "constant": true
    },
    {
      "inputs": [
        {
          "internalType": "uint32",
          "name": "",
          "type": "uint32"
        }
      ],
      "name": "participants",
      "outputs": [
        {
          "internalType": "string",
          "name": "userName",
          "type": "string"
        },
        {
          "internalType": "string",
          "name": "password",
          "type": "string"
        },
        {
          "internalType": "string",
          "name": "participantType",
          "type": "string"
        },
        {
          "internalType": "address",
          "name": "participantAddress",
          "type": "address"
        },
        {
          "internalType": "uint256",
          "name": "partGene",
          "type": "uint256"
        }
      ],
      "stateMutability": "view",
      "type": "function",
      "constant": true
    },
    {
      "inputs": [
        {
          "internalType": "string",
          "name": "_name",
          "type": "string"
        },
        {
          "internalType": "string",
          "name": "_pass",
          "type": "string"
        },
        {
          "internalType": "address",
          "name": "_pAdd",
          "type": "address"
        },
        {
          "internalType": "string",
          "name": "_pType",
          "type": "string"
        }
      ],
      "name": "addParticipant",
      "outputs": [
        {
          "internalType": "uint32",
          "name": "",
          "type": "uint32"
        }
      ],
      "stateMutability": "nonpayable",
      "type": "function"
    },
    {
      "inputs": [
        {
          "internalType": "uint32",
          "name": "_participant_id",
          "type": "uint32"
        }
      ],
      "name": "getParticipant",
      "outputs": [
        {
          "internalType": "string",
          "name": "",
          "type": "string"
        },
        {
          "internalType": "address",
          "name": "",
          "type": "address"
        },
        {
          "internalType": "string",
          "name": "",
          "type": "string"
        }
      ],
      "stateMutability": "view",
      "type": "function",
      "constant": true
    },
    {
      "inputs": [
        {
          "internalType": "uint32",
          "name": "_ownerId",
          "type": "uint32"
        },
        {
          "internalType": "string",
          "name": "_artworkName",
          "type": "string"
        },
        {
          "internalType": "string",
          "name": "_serialNumber",
          "type": "string"
        },
        {
          "internalType": "uint32",
          "name": "_productCost",
          "type": "uint32"
        }
      ],
      "name": "addArtwork",
      "outputs": [
        {
          "internalType": "uint32",
          "name": "",
          "type": "uint32"
        }
      ],
      "stateMutability": "nonpayable",
      "type": "function"
    },
    {
      "inputs": [
        {
          "internalType": "uint32",
          "name": "_artId",
          "type": "uint32"
        }
      ],
      "name": "getArtwork",
      "outputs": [
        {
          "internalType": "string",
          "name": "",
          "type": "string"
        },
        {
          "internalType": "string",
          "name": "",
          "type": "string"
        },
        {
          "internalType": "uint32",
          "name": "",
          "type": "uint32"
        },
        {
          "internalType": "address",
          "name": "",
          "type": "address"
        },
        {
          "internalType": "uint32",
          "name": "",
          "type": "uint32"
        },
        {
          "internalType": "uint256",
          "name": "",
          "type": "uint256"
        }
      ],
      "stateMutability": "view",
      "type": "function",
      "constant": true
    },
    {
      "inputs": [
        {
          "internalType": "uint32",
          "name": "_user1Id",
          "type": "uint32"
        },
        {
          "internalType": "uint32",
          "name": "_user2Id",
          "type": "uint32"
        },
        {
          "internalType": "uint32",
          "name": "_artId",
          "type": "uint32"
        }
      ],
      "name": "newOwner",
      "outputs": [
        {
          "internalType": "bool",
          "name": "",
          "type": "bool"
        }
      ],
      "stateMutability": "nonpayable",
      "type": "function"
    },
    {
      "inputs": [
        {
          "internalType": "uint32",
          "name": "_artworkId",
          "type": "uint32"
        }
      ],
      "name": "getProvenance",
      "outputs": [
        {
          "internalType": "uint32[]",
          "name": "",
          "type": "uint32[]"
        }
      ],
      "stateMutability": "view",
      "type": "function",
      "constant": true
    },
    {
      "inputs": [
        {
          "internalType": "uint32",
          "name": "_regId",
          "type": "uint32"
        }
      ],
      "name": "getOwnership",
      "outputs": [
        {
          "internalType": "uint32",
          "name": "",
          "type": "uint32"
        },
        {
          "internalType": "uint32",
          "name": "",
          "type": "uint32"
        },
        {
          "internalType": "address",
          "name": "",
          "type": "address"
        },
        {
          "internalType": "uint32",
          "name": "",
          "type": "uint32"
        }
      ],
      "stateMutability": "view",
      "type": "function",
      "constant": true
    },
    {
      "inputs": [
        {
          "internalType": "uint32",
          "name": "_uid",
          "type": "uint32"
        },
        {
          "internalType": "string",
          "name": "_uname",
          "type": "string"
        },
        {
          "internalType": "string",
          "name": "_pass",
          "type": "string"
        },
        {
          "internalType": "string",
          "name": "_utype",
          "type": "string"
        }
      ],
      "name": "authenticateParticipant",
      "outputs": [
        {
          "internalType": "bool",
          "name": "",
          "type": "bool"
        }
      ],
      "stateMutability": "view",
      "type": "function",
      "constant": true
    }
  ],
  "bytecode": "0x608060405260008060006101000a81548163ffffffff021916908363ffffffff160217905550615cf8600060046101000a81548163ffffffff021916908363ffffffff16021790555060008060086101000a81548163ffffffff021916908363ffffffff1602179055506010600155600154600a6200007f919062000223565b6002553480156200008f57600080fd5b5062000274565b7f4e487b7100000000000000000000000000000000000000000000000000000000600052601160045260246000fd5b60008160011c9050919050565b6000808291508390505b60018511156200012457808604811115620000fc57620000fb62000096565b5b60018516156200010c5780820291505b80810290506200011c85620000c5565b9450620000dc565b94509492505050565b6000826200013f576001905062000212565b816200014f576000905062000212565b81600181146200016857600281146200017357620001a9565b600191505062000212565b60ff84111562000188576200018762000096565b5b8360020a915084821115620001a257620001a162000096565b5b5062000212565b5060208310610133831016604e8410600b8410161715620001e35782820a905083811115620001dd57620001dc62000096565b5b62000212565b620001f28484846001620000d2565b925090508184048111156200020c576200020b62000096565b5b81810290505b9392505050565b6000819050919050565b6000620002308262000219565b91506200023d8362000219565b92506200026c7fffffffffffffffffffffffffffffffffffffffffffffffffffffffffffffffff84846200012d565b905092915050565b61319c80620002846000396000f3fe608060405234801561001057600080fd5b50600436106100b45760003560e01c806381e156101161007157806381e15610146101e45780639130b3d114610217578063c85695651461024c578063df6d23f11461027c578063e3ab08b5146102af578063ebf43a7e146102df576100b4565b806321db2aa0146100b95780632e9d5284146100ee5780633b26a65d1461011e5780636f6d654314610150578063721b5743146101805780637d0a9ac9146101b0575b600080fd5b6100d360048036038101906100ce9190612360565b61030f565b6040516100e596959493929190612486565b60405180910390f35b610108600480360381019061010391906124f5565b610555565b6040516101159190612563565b60405180910390f35b61013860048036038101906101339190612360565b611539565b6040516101479392919061257e565b60405180910390f35b61016a600480360381019061016591906125ef565b6116eb565b604051610177919061262f565b60405180910390f35b61019a6004803603810190610195919061277f565b611734565b6040516101a79190612563565b60405180910390f35b6101ca60048036038101906101c59190612360565b6118aa565b6040516101db95949392919061283a565b60405180910390f35b6101fe60048036038101906101f99190612360565b611a98565b60405161020e94939291906128a2565b60405180910390f35b610231600480360381019061022c9190612360565b611b18565b604051610243969594939291906128e7565b60405180910390f35b61026660048036038101906102619190612360565b611ca4565b6040516102739190612a14565b60405180910390f35b61029660048036038101906102919190612360565b611d47565b6040516102a69493929190612a36565b60405180910390f35b6102c960048036038101906102c49190612a7b565b611e67565b6040516102d6919061262f565b60405180910390f35b6102f960048036038101906102f49190612b46565b612104565b604051610306919061262f565b60405180910390f35b606080600080600080600360008863ffffffff1663ffffffff168152602001908152602001600020600001600360008963ffffffff1663ffffffff168152602001908152602001600020600101600360008a63ffffffff1663ffffffff16815260200190815260200160002060020160149054906101000a900463ffffffff16600360008b63ffffffff1663ffffffff16815260200190815260200160002060020160009054906101000a900473ffffffffffffffffffffffffffffffffffffffff16600360008c63ffffffff1663ffffffff16815260200190815260200160002060020160189054906101000a900463ffffffff16600360008d63ffffffff1663ffffffff1681526020019081526020016000206003015485805461043490612c30565b80601f016020809104026020016040519081016040528092919081815260200182805461046090612c30565b80156104ad5780601f10610482576101008083540402835291602001916104ad565b820191906000526020600020905b81548152906001019060200180831161049057829003601f168201915b505050505095508480546104c090612c30565b80601f01602080910402602001604051908101604052809291908181526020018280546104ec90612c30565b80156105395780601f1061050e57610100808354040283529160200191610539565b820191906000526020600020905b81548152906001019060200180831161051c57829003601f168201915b5050505050945095509550955095509550955091939550919395565b600081600360008263ffffffff1663ffffffff16815260200190815260200160002060020160009054906101000a900473ffffffffffffffffffffffffffffffffffffffff1673ffffffffffffffffffffffffffffffffffffffff163373ffffffffffffffffffffffffffffffffffffffff1614610608576040517f08c379a00000000000000000000000000000000000000000000000000000000081526004016105ff90612c87565b60405180910390fd5b6000600460008763ffffffff1663ffffffff1681526020019081526020016000206040518060a001604052908160008201805461064490612c30565b80601f016020809104026020016040519081016040528092919081815260200182805461067090612c30565b80156106bd5780601f10610692576101008083540402835291602001916106bd565b820191906000526020600020905b8154815290600101906020018083116106a057829003601f168201915b505050505081526020016001820180546106d690612c30565b80601f016020809104026020016040519081016040528092919081815260200182805461070290612c30565b801561074f5780601f106107245761010080835404028352916020019161074f565b820191906000526020600020905b81548152906001019060200180831161073257829003601f168201915b5050505050815260200160028201805461076890612c30565b80601f016020809104026020016040519081016040528092919081815260200182805461079490612c30565b80156107e15780601f106107b6576101008083540402835291602001916107e1565b820191906000526020600020905b8154815290600101906020018083116107c457829003601f168201915b505050505081526020016003820160009054906101000a900473ffffffffffffffffffffffffffffffffffffffff1673ffffffffffffffffffffffffffffffffffffffff1673ffffffffffffffffffffffffffffffffffffffff16815260200160048201548152505090506000600460008763ffffffff1663ffffffff1681526020019081526020016000206040518060a001604052908160008201805461088890612c30565b80601f01602080910402602001604051908101604052809291908181526020018280546108b490612c30565b80156109015780601f106108d657610100808354040283529160200191610901565b820191906000526020600020905b8154815290600101906020018083116108e457829003601f168201915b5050505050815260200160018201805461091a90612c30565b80601f016020809104026020016040519081016040528092919081815260200182805461094690612c30565b80156109935780601f1061096857610100808354040283529160200191610993565b820191906000526020600020905b81548152906001019060200180831161097657829003601f168201915b505050505081526020016002820180546109ac90612c30565b80601f01602080910402602001604051908101604052809291908181526020018280546109d890612c30565b8015610a255780601f106109fa57610100808354040283529160200191610a25565b820191906000526020600020905b815481529060010190602001808311610a0857829003601f168201915b505050505081526020016003820160009054906101000a900473ffffffffffffffffffffffffffffffffffffffff1673ffffffffffffffffffffffffffffffffffffffff1673ffffffffffffffffffffffffffffffffffffffff1681526020016004820154815250509050600080600881819054906101000a900463ffffffff1680929190610ab390612cd6565b91906101000a81548163ffffffff021916908363ffffffff16021790555090507fcec9b8e63c868f2f7f30368f1583e7aa39ae80e163d57a859fa5a90244b28ac18360400151604051602001610b099190612d3e565b60405160208183030381529060405280519060200120148015610b7557507fb77c7d6bf62fa24fc205955093030c58325cd2d3d35fb486ede7594fb99635f58260400151604051602001610b5d9190612d3e565b60405160208183030381529060405280519060200120145b15610e455785600560008363ffffffff1663ffffffff16815260200190815260200160002060000160006101000a81548163ffffffff021916908363ffffffff1602179055508160600151600560008363ffffffff1663ffffffff168152602001908152602001600020600001600c6101000a81548173ffffffffffffffffffffffffffffffffffffffff021916908373ffffffffffffffffffffffffffffffffffffffff16021790555086600560008363ffffffff1663ffffffff16815260200190815260200160002060000160046101000a81548163ffffffff021916908363ffffffff16021790555042600560008363ffffffff1663ffffffff16815260200190815260200160002060000160086101000a81548163ffffffff021916908363ffffffff1602179055508160600151600360008863ffffffff1663ffffffff16815260200190815260200160002060020160006101000a81548173ffffffffffffffffffffffffffffffffffffffff021916908373ffffffffffffffffffffffffffffffffffffffff16021790555060006002600360008963ffffffff1663ffffffff168152602001908152602001600020600301548460800151610d3d9190612d55565b610d479190612db8565b90506063606482610d589190612de9565b82610d639190612e1a565b610d6d9190612d55565b905080600360008963ffffffff1663ffffffff16815260200190815260200160002060030181905550600660008863ffffffff1663ffffffff1681526020019081526020016000208290806001815401808255809150506001900390600052602060002090600891828204019190066004029091909190916101000a81548163ffffffff021916908363ffffffff1602179055507fa5470ac012c6e9dc500e62b1d3de0de58db49b3ab7cfebbfb126d9abd854199b87604051610e30919061262f565b60405180910390a16001955050505050611531565b7fb77c7d6bf62fa24fc205955093030c58325cd2d3d35fb486ede7594fb99635f58360400151604051602001610e7b9190612d3e565b60405160208183030381529060405280519060200120148015610ee757507fb77c7d6bf62fa24fc205955093030c58325cd2d3d35fb486ede7594fb99635f58260400151604051602001610ecf9190612d3e565b60405160208183030381529060405280519060200120145b156111b75785600560008363ffffffff1663ffffffff16815260200190815260200160002060000160006101000a81548163ffffffff021916908363ffffffff1602179055508160600151600560008363ffffffff1663ffffffff168152602001908152602001600020600001600c6101000a81548173ffffffffffffffffffffffffffffffffffffffff021916908373ffffffffffffffffffffffffffffffffffffffff16021790555086600560008363ffffffff1663ffffffff16815260200190815260200160002060000160046101000a81548163ffffffff021916908363ffffffff16021790555042600560008363ffffffff1663ffffffff16815260200190815260200160002060000160086101000a81548163ffffffff021916908363ffffffff1602179055508160600151600360008863ffffffff1663ffffffff16815260200190815260200160002060020160006101000a81548173ffffffffffffffffffffffffffffffffffffffff021916908373ffffffffffffffffffffffffffffffffffffffff16021790555060006002600360008963ffffffff1663ffffffff1681526020019081526020016000206003015484608001516110af9190612d55565b6110b99190612db8565b905060586064826110ca9190612de9565b826110d59190612e1a565b6110df9190612d55565b905080600360008963ffffffff1663ffffffff16815260200190815260200160002060030181905550600660008863ffffffff1663ffffffff1681526020019081526020016000208290806001815401808255809150506001900390600052602060002090600891828204019190066004029091909190916101000a81548163ffffffff021916908363ffffffff1602179055507fa5470ac012c6e9dc500e62b1d3de0de58db49b3ab7cfebbfb126d9abd854199b876040516111a2919061262f565b60405180910390a16001955050505050611531565b7fb77c7d6bf62fa24fc205955093030c58325cd2d3d35fb486ede7594fb99635f583604001516040516020016111ed9190612d3e565b6040516020818303038152906040528051906020012014801561125957507fc0878b4b16a78e8085cba0ca02fc0924f1492924058d153153a3f286e0fd70ff82604001516040516020016112419190612d3e565b60405160208183030381529060405280519060200120145b156115295785600560008363ffffffff1663ffffffff16815260200190815260200160002060000160006101000a81548163ffffffff021916908363ffffffff1602179055508160600151600560008363ffffffff1663ffffffff168152602001908152602001600020600001600c6101000a81548173ffffffffffffffffffffffffffffffffffffffff021916908373ffffffffffffffffffffffffffffffffffffffff16021790555086600560008363ffffffff1663ffffffff16815260200190815260200160002060000160046101000a81548163ffffffff021916908363ffffffff16021790555042600560008363ffffffff1663ffffffff16815260200190815260200160002060000160086101000a81548163ffffffff021916908363ffffffff1602179055508160600151600360008863ffffffff1663ffffffff16815260200190815260200160002060020160006101000a81548173ffffffffffffffffffffffffffffffffffffffff021916908373ffffffffffffffffffffffffffffffffffffffff16021790555060006002600360008963ffffffff1663ffffffff1681526020019081526020016000206003015484608001516114219190612d55565b61142b9190612db8565b9050605860648261143c9190612de9565b826114479190612e1a565b6114519190612d55565b905080600360008963ffffffff1663ffffffff16815260200190815260200160002060030181905550600660008863ffffffff1663ffffffff1681526020019081526020016000208290806001815401808255809150506001900390600052602060002090600891828204019190066004029091909190916101000a81548163ffffffff021916908363ffffffff1602179055507fa5470ac012c6e9dc500e62b1d3de0de58db49b3ab7cfebbfb126d9abd854199b87604051611514919061262f565b60405180910390a16001955050505050611531565b600094505050505b509392505050565b606060006060600460008563ffffffff1663ffffffff168152602001908152602001600020600001600460008663ffffffff1663ffffffff16815260200190815260200160002060030160009054906101000a900473ffffffffffffffffffffffffffffffffffffffff16600460008763ffffffff1663ffffffff1681526020019081526020016000206002018280546115d290612c30565b80601f01602080910402602001604051908101604052809291908181526020018280546115fe90612c30565b801561164b5780601f106116205761010080835404028352916020019161164b565b820191906000526020600020905b81548152906001019060200180831161162e57829003601f168201915b5050505050925080805461165e90612c30565b80601f016020809104026020016040519081016040528092919081815260200182805461168a90612c30565b80156116d75780601f106116ac576101008083540402835291602001916116d7565b820191906000526020600020905b8154815290600101906020018083116116ba57829003601f168201915b505050505090509250925092509193909250565b6006602052816000526040600020818154811061170757600080fd5b9060005260206000209060089182820401919006600402915091509054906101000a900463ffffffff1681565b6000816040516020016117479190612d3e565b60405160208183030381529060405280519060200120600460008763ffffffff1663ffffffff16815260200190815260200160002060020160405160200161178f9190612ee6565b604051602081830303815290604052805190602001200361189d57836040516020016117bb9190612d3e565b60405160208183030381529060405280519060200120600460008763ffffffff1663ffffffff1681526020019081526020016000206000016040516020016118039190612ee6565b604051602081830303815290604052805190602001200361189c578260405160200161182f9190612d3e565b60405160208183030381529060405280519060200120600460008763ffffffff1663ffffffff1681526020019081526020016000206001016040516020016118779190612ee6565b604051602081830303815290604052805190602001200361189b57600190506118a2565b5b5b600090505b949350505050565b60046020528060005260406000206000915090508060000180546118cd90612c30565b80601f01602080910402602001604051908101604052809291908181526020018280546118f990612c30565b80156119465780601f1061191b57610100808354040283529160200191611946565b820191906000526020600020905b81548152906001019060200180831161192957829003601f168201915b50505050509080600101805461195b90612c30565b80601f016020809104026020016040519081016040528092919081815260200182805461198790612c30565b80156119d45780601f106119a9576101008083540402835291602001916119d4565b820191906000526020600020905b8154815290600101906020018083116119b757829003601f168201915b5050505050908060020180546119e990612c30565b80601f0160208091040260200160405190810160405280929190818152602001828054611a1590612c30565b8015611a625780601f10611a3757610100808354040283529160200191611a62565b820191906000526020600020905b815481529060010190602001808311611a4557829003601f168201915b5050505050908060030160009054906101000a900473ffffffffffffffffffffffffffffffffffffffff16908060040154905085565b60056020528060005260406000206000915090508060000160009054906101000a900463ffffffff16908060000160049054906101000a900463ffffffff16908060000160089054906101000a900463ffffffff169080600001600c9054906101000a900473ffffffffffffffffffffffffffffffffffffffff16905084565b6003602052806000526040600020600091509050806000018054611b3b90612c30565b80601f0160208091040260200160405190810160405280929190818152602001828054611b6790612c30565b8015611bb45780601f10611b8957610100808354040283529160200191611bb4565b820191906000526020600020905b815481529060010190602001808311611b9757829003601f168201915b505050505090806001018054611bc990612c30565b80601f0160208091040260200160405190810160405280929190818152602001828054611bf590612c30565b8015611c425780601f10611c1757610100808354040283529160200191611c42565b820191906000526020600020905b815481529060010190602001808311611c2557829003601f168201915b5050505050908060020160009054906101000a900473ffffffffffffffffffffffffffffffffffffffff16908060020160149054906101000a900463ffffffff16908060020160189054906101000a900463ffffffff16908060030154905086565b6060600660008363ffffffff1663ffffffff168152602001908152602001600020805480602002602001604051908101604052809291908181526020018280548015611d3b57602002820191906000526020600020906000905b82829054906101000a900463ffffffff1663ffffffff1681526020019060040190602082600301049283019260010382029150808411611cfe5790505b50505050509050919050565b6000806000806000600560008763ffffffff1663ffffffff1681526020019081526020016000206040518060800160405290816000820160009054906101000a900463ffffffff1663ffffffff1663ffffffff1681526020016000820160049054906101000a900463ffffffff1663ffffffff1663ffffffff1681526020016000820160089054906101000a900463ffffffff1663ffffffff1663ffffffff16815260200160008201600c9054906101000a900473ffffffffffffffffffffffffffffffffffffffff1673ffffffffffffffffffffffffffffffffffffffff1673ffffffffffffffffffffffffffffffffffffffff1681525050905080600001518160200151826060015183604001519450945094509450509193509193565b60007fcec9b8e63c868f2f7f30368f1583e7aa39ae80e163d57a859fa5a90244b28ac1600460008763ffffffff1663ffffffff168152602001908152602001600020600201604051602001611ebc9190612ee6565b60405160208183030381529060405280519060200120036120f7576000611ee2856122cb565b9050606481611ef19190612de9565b81611efc9190612e1a565b9050600080600081819054906101000a900463ffffffff1680929190611f2190612cd6565b91906101000a81548163ffffffff021916908363ffffffff160217905550905085600360008363ffffffff1663ffffffff1681526020019081526020016000206000019081611f709190613094565b5084600360008363ffffffff1663ffffffff1681526020019081526020016000206001019081611fa09190613094565b5083600360008363ffffffff1663ffffffff16815260200190815260200160002060020160146101000a81548163ffffffff021916908363ffffffff160217905550600460008863ffffffff1663ffffffff16815260200190815260200160002060030160009054906101000a900473ffffffffffffffffffffffffffffffffffffffff16600360008363ffffffff1663ffffffff16815260200190815260200160002060020160006101000a81548173ffffffffffffffffffffffffffffffffffffffff021916908373ffffffffffffffffffffffffffffffffffffffff16021790555042600360008363ffffffff1663ffffffff16815260200190815260200160002060020160186101000a81548163ffffffff021916908363ffffffff16021790555081600360008363ffffffff1663ffffffff1681526020019081526020016000206003018190555080925050506120fc565b600090505b949350505050565b600080612110866122cb565b905060648161211f9190612de9565b8161212a9190612e1a565b9050600080600481819054906101000a900463ffffffff168092919061214f90612cd6565b91906101000a81548163ffffffff021916908363ffffffff160217905550905086600460008363ffffffff1663ffffffff168152602001908152602001600020600001908161219e9190613094565b5085600460008363ffffffff1663ffffffff16815260200190815260200160002060010190816121ce9190613094565b5084600460008363ffffffff1663ffffffff16815260200190815260200160002060030160006101000a81548173ffffffffffffffffffffffffffffffffffffffff021916908373ffffffffffffffffffffffffffffffffffffffff16021790555083600460008363ffffffff1663ffffffff168152602001908152602001600020600201908161225f9190613094565b5081600460008363ffffffff1663ffffffff168152602001908152602001600020600401819055507f86b32860bfd61d26850e3cc8dff9fb8a0b4815b36de8257ecd03d25e70245ee2816040516122b6919061262f565b60405180910390a18092505050949350505050565b600080826040516020016122df9190612d3e565b6040516020818303038152906040528051906020012060001c9050600254816123089190612de9565b915050919050565b6000604051905090565b600080fd5b600080fd5b600063ffffffff82169050919050565b61233d81612324565b811461234857600080fd5b50565b60008135905061235a81612334565b92915050565b6000602082840312156123765761237561231a565b5b60006123848482850161234b565b91505092915050565b600081519050919050565b600082825260208201905092915050565b60005b838110156123c75780820151818401526020810190506123ac565b60008484015250505050565b6000601f19601f8301169050919050565b60006123ef8261238d565b6123f98185612398565b93506124098185602086016123a9565b612412816123d3565b840191505092915050565b61242681612324565b82525050565b600073ffffffffffffffffffffffffffffffffffffffff82169050919050565b60006124578261242c565b9050919050565b6124678161244c565b82525050565b6000819050919050565b6124808161246d565b82525050565b600060c08201905081810360008301526124a081896123e4565b905081810360208301526124b481886123e4565b90506124c3604083018761241d565b6124d0606083018661245e565b6124dd608083018561241d565b6124ea60a0830184612477565b979650505050505050565b60008060006060848603121561250e5761250d61231a565b5b600061251c8682870161234b565b935050602061252d8682870161234b565b925050604061253e8682870161234b565b9150509250925092565b60008115159050919050565b61255d81612548565b82525050565b60006020820190506125786000830184612554565b92915050565b6000606082019050818103600083015261259881866123e4565b90506125a7602083018561245e565b81810360408301526125b981846123e4565b9050949350505050565b6125cc8161246d565b81146125d757600080fd5b50565b6000813590506125e9816125c3565b92915050565b600080604083850312156126065761260561231a565b5b60006126148582860161234b565b9250506020612625858286016125da565b9150509250929050565b6000602082019050612644600083018461241d565b92915050565b600080fd5b600080fd5b7f4e487b7100000000000000000000000000000000000000000000000000000000600052604160045260246000fd5b61268c826123d3565b810181811067ffffffffffffffff821117156126ab576126aa612654565b5b80604052505050565b60006126be612310565b90506126ca8282612683565b919050565b600067ffffffffffffffff8211156126ea576126e9612654565b5b6126f3826123d3565b9050602081019050919050565b82818337600083830152505050565b600061272261271d846126cf565b6126b4565b90508281526020810184848401111561273e5761273d61264f565b5b612749848285612700565b509392505050565b600082601f8301126127665761276561264a565b5b813561277684826020860161270f565b91505092915050565b600080600080608085870312156127995761279861231a565b5b60006127a78782880161234b565b945050602085013567ffffffffffffffff8111156127c8576127c761231f565b5b6127d487828801612751565b935050604085013567ffffffffffffffff8111156127f5576127f461231f565b5b61280187828801612751565b925050606085013567ffffffffffffffff8111156128225761282161231f565b5b61282e87828801612751565b91505092959194509250565b600060a082019050818103600083015261285481886123e4565b9050818103602083015261286881876123e4565b9050818103604083015261287c81866123e4565b905061288b606083018561245e565b6128986080830184612477565b9695505050505050565b60006080820190506128b7600083018761241d565b6128c4602083018661241d565b6128d1604083018561241d565b6128de606083018461245e565b95945050505050565b600060c082019050818103600083015261290181896123e4565b9050818103602083015261291581886123e4565b9050612924604083018761245e565b612931606083018661241d565b61293e608083018561241d565b61294b60a0830184612477565b979650505050505050565b600081519050919050565b600082825260208201905092915050565b6000819050602082019050919050565b61298b81612324565b82525050565b600061299d8383612982565b60208301905092915050565b6000602082019050919050565b60006129c182612956565b6129cb8185612961565b93506129d683612972565b8060005b83811015612a075781516129ee8882612991565b97506129f9836129a9565b9250506001810190506129da565b5085935050505092915050565b60006020820190508181036000830152612a2e81846129b6565b905092915050565b6000608082019050612a4b600083018761241d565b612a58602083018661241d565b612a65604083018561245e565b612a72606083018461241d565b95945050505050565b60008060008060808587031215612a9557612a9461231a565b5b6000612aa38782880161234b565b945050602085013567ffffffffffffffff811115612ac457612ac361231f565b5b612ad087828801612751565b935050604085013567ffffffffffffffff811115612af157612af061231f565b5b612afd87828801612751565b9250506060612b0e8782880161234b565b91505092959194509250565b612b238161244c565b8114612b2e57600080fd5b50565b600081359050612b4081612b1a565b92915050565b60008060008060808587031215612b6057612b5f61231a565b5b600085013567ffffffffffffffff811115612b7e57612b7d61231f565b5b612b8a87828801612751565b945050602085013567ffffffffffffffff811115612bab57612baa61231f565b5b612bb787828801612751565b9350506040612bc887828801612b31565b925050606085013567ffffffffffffffff811115612be957612be861231f565b5b612bf587828801612751565b91505092959194509250565b7f4e487b7100000000000000000000000000000000000000000000000000000000600052602260045260246000fd5b60006002820490506001821680612c4857607f821691505b602082108103612c5b57612c5a612c01565b5b50919050565b50565b6000612c71600083612398565b9150612c7c82612c61565b600082019050919050565b60006020820190508181036000830152612ca081612c64565b9050919050565b7f4e487b7100000000000000000000000000000000000000000000000000000000600052601160045260246000fd5b6000612ce182612324565b915063ffffffff8203612cf757612cf6612ca7565b5b600182019050919050565b600081905092915050565b6000612d188261238d565b612d228185612d02565b9350612d328185602086016123a9565b80840191505092915050565b6000612d4a8284612d0d565b915081905092915050565b6000612d608261246d565b9150612d6b8361246d565b9250828201905080821115612d8357612d82612ca7565b5b92915050565b7f4e487b7100000000000000000000000000000000000000000000000000000000600052601260045260246000fd5b6000612dc38261246d565b9150612dce8361246d565b925082612dde57612ddd612d89565b5b828204905092915050565b6000612df48261246d565b9150612dff8361246d565b925082612e0f57612e0e612d89565b5b828206905092915050565b6000612e258261246d565b9150612e308361246d565b9250828203905081811115612e4857612e47612ca7565b5b92915050565b60008190508160005260206000209050919050565b60008154612e7081612c30565b612e7a8186612d02565b94506001821660008114612e955760018114612eaa57612edd565b60ff1983168652811515820286019350612edd565b612eb385612e4e565b60005b83811015612ed557815481890152600182019150602081019050612eb6565b838801955050505b50505092915050565b6000612ef28284612e63565b915081905092915050565b60006020601f8301049050919050565b600082821b905092915050565b600060088302612f4a7fffffffffffffffffffffffffffffffffffffffffffffffffffffffffffffffff82612f0d565b612f548683612f0d565b95508019841693508086168417925050509392505050565b6000819050919050565b6000612f91612f8c612f878461246d565b612f6c565b61246d565b9050919050565b6000819050919050565b612fab83612f76565b612fbf612fb782612f98565b848454612f1a565b825550505050565b600090565b612fd4612fc7565b612fdf818484612fa2565b505050565b5b8181101561300357612ff8600082612fcc565b600181019050612fe5565b5050565b601f8211156130485761301981612e4e565b61302284612efd565b81016020851015613031578190505b61304561303d85612efd565b830182612fe4565b50505b505050565b600082821c905092915050565b600061306b6000198460080261304d565b1980831691505092915050565b6000613084838361305a565b9150826002028217905092915050565b61309d8261238d565b67ffffffffffffffff8111156130b6576130b5612654565b5b6130c08254612c30565b6130cb828285613007565b600060209050601f8311600181146130fe57600084156130ec578287015190505b6130f68582613078565b86555061315e565b601f19841661310c86612e4e565b60005b828110156131345784890151825560018201915060208501945060208101905061310f565b86831015613151578489015161314d601f89168261305a565b8355505b6001600288020188555050505b50505050505056fea26469706673582212207e0e7938f55bf91861c6354c4f7d033e784809a3d84d5305c1bc8760c67836a464736f6c63430008130033",
  "immutableReferences": {},
  "source": "//SPDX-License-Identifier: MIT\r\npragma solidity ^0.8.0;\r\n\r\n\r\ncontract artistryChain {\r\n    uint32 artwork_id = 0; // artworks ID\r\n    uint32 participant_id =23800;  // Participant ID\r\n    uint32 owner_id =0; //Ownership ID\r\n    uint geneDigits = 16;\r\n    uint geneModulus = 10 ** geneDigits;\r\n\r\n    event NewParticipant(uint32 userId);\r\n    event TransferOwnership(uint32 artworkId);\r\n\r\n    struct artwork {\r\n        string artworkName;\r\n        string serialNumber;\r\n        address artworkOwner;\r\n        uint32 cost;\r\n        uint32 atyTimeStamp;\r\n        uint gene;\r\n    }\r\n    mapping(uint32 => artwork) public artworks; //mapping artwork_ID to the artwork\r\n\r\n    struct participant {\r\n        string userName;\r\n        string password;\r\n        string participantType;\r\n        address participantAddress;\r\n        uint partGene;\r\n    }\r\n    mapping(uint32 => participant) public participants; // mapping participants_ID to the participants\r\n\r\n    struct ownership {\r\n        uint32 artwork_Id;\r\n        uint32 ownerId;\r\n        uint32 trdTimeStamp;\r\n        address artworkOwner;\r\n    }\r\n    mapping(uint32 => ownership) public ownerships;      //ownerships ownership ID\r\n    mapping(uint32 => uint32[]) public artworkTrack;     //ownerships by arwotk_Id to track the artwork history\r\n\r\n\r\n    function addParticipant(string memory _name, string memory _pass, address _pAdd, string memory _pType) public returns (uint32){\r\n        uint randGene = _generateRandomGene(_name);\r\n        randGene = randGene - randGene % 100;\r\n        uint32 userId = participant_id++;\r\n        participants[userId].userName = _name;\r\n        participants[userId].password = _pass;\r\n        participants[userId].participantAddress = _pAdd;\r\n        participants[userId].participantType = _pType;\r\n        participants[userId].partGene = randGene;\r\n        emit NewParticipant(userId);\r\n        return userId;\r\n    }\r\n\r\n    function getParticipant(uint32 _participant_id) public view returns (string memory,address,string memory) {\r\n        return (participants[_participant_id].userName,\r\n                participants[_participant_id].participantAddress,\r\n                participants[_participant_id].participantType);\r\n    }\r\n\r\n    function _generateRandomGene(string memory _str) private view returns (uint){\r\n    uint rand = uint(keccak256(abi.encodePacked(_str)));\r\n    return rand % geneModulus;\r\n    }\r\n\r\n    function addArtwork(uint32 _ownerId,\r\n                        string memory _artworkName,\r\n                        string memory _serialNumber,\r\n                        uint32 _productCost) public returns (uint32) {\r\n\r\n        if(keccak256(abi.encodePacked(participants[_ownerId].participantType)) == keccak256(\"Manufacturer\")) {\r\n            uint randGene = _generateRandomGene(_artworkName);\r\n            randGene = randGene - randGene % 100;\r\n            uint32 artworkId = artwork_id++;\r\n            artworks[artworkId].artworkName = _artworkName;\r\n            artworks[artworkId].serialNumber = _serialNumber;\r\n            artworks[artworkId].cost = _productCost;\r\n            artworks[artworkId].artworkOwner = participants[_ownerId].participantAddress;\r\n            artworks[artworkId].atyTimeStamp = uint32(block.timestamp);\r\n            artworks[artworkId].gene = randGene;\r\n            return artworkId;\r\n        }\r\n       return 0;\r\n    }\r\n\r\n    function getArtwork(uint32 _artId) public view returns ( string memory, string memory, uint32, address, uint32, uint){\r\n        return( artworks[_artId].artworkName,\r\n                artworks[_artId].serialNumber,\r\n                artworks[_artId].cost,\r\n                artworks[_artId].artworkOwner,\r\n                artworks[_artId].atyTimeStamp,\r\n                artworks[_artId].gene);\r\n    }\r\n\r\n    modifier onlyOwner(uint32 _artworkId) {\r\n         require(msg.sender == artworks[_artworkId].artworkOwner,\"\");\r\n         _;\r\n\r\n    }\r\n\r\n    function newOwner(uint32 _user1Id,uint32 _user2Id, uint32 _artId) onlyOwner(_artId) public returns (bool) {\r\n        participant memory p1 = participants[_user1Id];\r\n        participant memory p2 = participants[_user2Id];\r\n        uint32 ownership_id = owner_id++;\r\n\r\n        if(keccak256(abi.encodePacked(p1.participantType)) == keccak256(\"Manufacturer\")\r\n            && keccak256(abi.encodePacked(p2.participantType))==keccak256(\"Supplier\")){\r\n            ownerships[ownership_id].artwork_Id = _artId;\r\n            ownerships[ownership_id].artworkOwner = p2.participantAddress;\r\n            ownerships[ownership_id].ownerId = _user2Id;\r\n            ownerships[ownership_id].trdTimeStamp = uint32(block.timestamp);\r\n            artworks[_artId].artworkOwner = p2.participantAddress;\r\n            uint _newGene = (p2.partGene + artworks[_artId].gene) / 2;\r\n            _newGene = _newGene - _newGene % 100 + 99;\r\n            artworks[_artId].gene = _newGene;\r\n            artworkTrack[_artId].push(ownership_id);\r\n            emit TransferOwnership(_artId);\r\n\r\n            return (true);\r\n        }\r\n        else if(keccak256(abi.encodePacked(p1.participantType)) == keccak256(\"Supplier\") && keccak256(abi.encodePacked(p2.participantType))==keccak256(\"Supplier\")){\r\n            ownerships[ownership_id].artwork_Id = _artId;\r\n            ownerships[ownership_id].artworkOwner = p2.participantAddress;\r\n            ownerships[ownership_id].ownerId = _user2Id;\r\n            ownerships[ownership_id].trdTimeStamp = uint32(block.timestamp);\r\n            artworks[_artId].artworkOwner = p2.participantAddress;\r\n            uint _newGene = (p2.partGene + artworks[_artId].gene) / 2;\r\n            _newGene = _newGene - _newGene % 100 + 88;\r\n            artworks[_artId].gene = _newGene;\r\n            artworkTrack[_artId].push(ownership_id);\r\n            emit TransferOwnership(_artId);\r\n\r\n            return (true);\r\n        }\r\n        else if(keccak256(abi.encodePacked(p1.participantType)) == keccak256(\"Supplier\") && keccak256(abi.encodePacked(p2.participantType))==keccak256(\"Consumer\")){\r\n            ownerships[ownership_id].artwork_Id = _artId;\r\n            ownerships[ownership_id].artworkOwner = p2.participantAddress;\r\n            ownerships[ownership_id].ownerId = _user2Id;\r\n            ownerships[ownership_id].trdTimeStamp = uint32(block.timestamp);\r\n            artworks[_artId].artworkOwner = p2.participantAddress;\r\n            uint _newGene = (p2.partGene + artworks[_artId].gene) / 2;\r\n            _newGene = _newGene - _newGene % 100 + 88;\r\n            artworks[_artId].gene = _newGene;\r\n            artworkTrack[_artId].push(ownership_id);\r\n            emit TransferOwnership(_artId);\r\n\r\n            return (true);\r\n        }\r\n\r\n        return (false);\r\n    }\r\n\r\n    function getProvenance(uint32 _artworkId) external view returns (uint32[] memory) {\r\n\r\n       return artworkTrack[_artworkId];\r\n    }\r\n\r\n    function getOwnership(uint32 _regId)  public view returns (uint32,uint32,address,uint32) {\r\n\r\n        ownership memory r = ownerships[_regId];\r\n\r\n         return (r.artwork_Id,r.ownerId,r.artworkOwner,r.trdTimeStamp);\r\n    }\r\n\r\n    function authenticateParticipant(uint32 _uid,\r\n                                    string memory _uname,\r\n                                    string memory _pass,\r\n                                    string memory _utype) public view returns (bool){\r\n        if(keccak256(abi.encodePacked(participants[_uid].participantType)) == keccak256(abi.encodePacked(_utype))) {\r\n            if(keccak256(abi.encodePacked(participants[_uid].userName)) == keccak256(abi.encodePacked(_uname))) {\r\n                if(keccak256(abi.encodePacked(participants[_uid].password)) == keccak256(abi.encodePacked(_pass))) {\r\n                    return (true);\r\n                }\r\n            }\r\n        }\r\n\r\n        return (false);\r\n    }\r\n\r\n}",
  "sourcePath": "C:\\Users\\Denchihin\\Desktop\\workspace\\LatinJazz\\contracts\\artistrychain.sol",
  "compiler": {
    "name": "solc",
    "version": "0.8.19+commit.7dd6d404.Emscripten.clang"
  },
  "schemaVersion": "3.4.13",
  "updatedAt": "2023-05-03T16:34:01.373Z",
  "networkType": "ethereum",
  "devdoc": {
    "kind": "dev",
    "methods": {},
    "version": 1
  },
  "userdoc": {
    "kind": "user",
    "methods": {},
    "version": 1
  }
}