{
  "contractName": "ArtistryFactory",
  "abi": [
    {
      "anonymous": false,
      "inputs": [
        {
          "indexed": false,
          "internalType": "uint256",
          "name": "artworkId",
          "type": "uint256"
        },
        {
          "indexed": false,
          "internalType": "string",
          "name": "name",
          "type": "string"
        },
        {
          "indexed": false,
          "internalType": "uint256",
          "name": "gene",
          "type": "uint256"
        }
      ],
      "name": "NewArtwork",
      "type": "event"
    },
    {
      "anonymous": false,
      "inputs": [
        {
          "indexed": true,
          "internalType": "address",
          "name": "previousOwner",
          "type": "address"
        },
        {
          "indexed": true,
          "internalType": "address",
          "name": "newOwner",
          "type": "address"
        }
      ],
      "name": "OwnershipTransferred",
      "type": "event"
    },
    {
      "inputs": [
        {
          "internalType": "uint256",
          "name": "",
          "type": "uint256"
        }
      ],
      "name": "artworkToOwner",
      "outputs": [
        {
          "internalType": "address",
          "name": "",
          "type": "address"
        }
      ],
      "stateMutability": "view",
      "type": "function",
      "constant": true
    },
    {
      "inputs": [
        {
          "internalType": "uint256",
          "name": "",
          "type": "uint256"
        }
      ],
      "name": "artworks",
      "outputs": [
        {
          "internalType": "string",
          "name": "name",
          "type": "string"
        },
        {
          "internalType": "uint256",
          "name": "gene",
          "type": "uint256"
        },
        {
          "internalType": "uint32",
          "name": "createDate",
          "type": "uint32"
        }
      ],
      "stateMutability": "view",
      "type": "function",
      "constant": true
    },
    {
      "inputs": [],
      "name": "owner",
      "outputs": [
        {
          "internalType": "address",
          "name": "",
          "type": "address"
        }
      ],
      "stateMutability": "view",
      "type": "function",
      "constant": true
    },
    {
      "inputs": [],
      "name": "renounceOwnership",
      "outputs": [],
      "stateMutability": "nonpayable",
      "type": "function"
    },
    {
      "inputs": [
        {
          "internalType": "address",
          "name": "newOwner",
          "type": "address"
        }
      ],
      "name": "transferOwnership",
      "outputs": [],
      "stateMutability": "nonpayable",
      "type": "function"
    },
    {
      "inputs": [
        {
          "internalType": "string",
          "name": "_name",
          "type": "string"
        }
      ],
      "name": "createNewArtwork",
      "outputs": [],
      "stateMutability": "nonpayable",
      "type": "function"
    }
  ],
  "bytecode": "0x60806040526010600155600154600a6200001a9190620002aa565b6002553480156200002a57600080fd5b506200004b6200003f6200005160201b60201c565b6200005960201b60201c565b620002fb565b600033905090565b60008060009054906101000a900473ffffffffffffffffffffffffffffffffffffffff169050816000806101000a81548173ffffffffffffffffffffffffffffffffffffffff021916908373ffffffffffffffffffffffffffffffffffffffff1602179055508173ffffffffffffffffffffffffffffffffffffffff168173ffffffffffffffffffffffffffffffffffffffff167f8be0079c531659141344cd1fd0a4f28419497f9722a3daafe3b4186f6b6457e060405160405180910390a35050565b7f4e487b7100000000000000000000000000000000000000000000000000000000600052601160045260246000fd5b60008160011c9050919050565b6000808291508390505b6001851115620001ab578086048111156200018357620001826200011d565b5b6001851615620001935780820291505b8081029050620001a3856200014c565b945062000163565b94509492505050565b600082620001c6576001905062000299565b81620001d6576000905062000299565b8160018114620001ef5760028114620001fa5762000230565b600191505062000299565b60ff8411156200020f576200020e6200011d565b5b8360020a9150848211156200022957620002286200011d565b5b5062000299565b5060208310610133831016604e8410600b84101617156200026a5782820a9050838111156200026457620002636200011d565b5b62000299565b62000279848484600162000159565b925090508184048111156200029357620002926200011d565b5b81810290505b9392505050565b6000819050919050565b6000620002b782620002a0565b9150620002c483620002a0565b9250620002f37fffffffffffffffffffffffffffffffffffffffffffffffffffffffffffffffff8484620001b4565b905092915050565b611027806200030b6000396000f3fe608060405234801561001057600080fd5b50600436106100625760003560e01c8063345cff12146100675780634b60267314610083578063715018a6146100b55780638b2bdf25146100bf5780638da5cb5b146100ef578063f2fde38b1461010d575b600080fd5b610081600480360381019061007c9190610841565b610129565b005b61009d600480360381019061009891906108c0565b6101aa565b6040516100ac9392919061099a565b60405180910390f35b6100bd61027c565b005b6100d960048036038101906100d491906108c0565b610290565b6040516100e69190610a19565b60405180910390f35b6100f76102c3565b6040516101049190610a19565b60405180910390f35b61012760048036038101906101229190610a60565b6102ec565b005b6000600560003373ffffffffffffffffffffffffffffffffffffffff1673ffffffffffffffffffffffffffffffffffffffff168152602001908152602001600020541461017557600080fd5b60006101808261036f565b905060648161018f9190610abc565b8161019a9190610b1c565b90506101a682826103b4565b5050565b600381815481106101ba57600080fd5b90600052602060002090600302016000915090508060000180546101dd90610b7f565b80601f016020809104026020016040519081016040528092919081815260200182805461020990610b7f565b80156102565780601f1061022b57610100808354040283529160200191610256565b820191906000526020600020905b81548152906001019060200180831161023957829003601f168201915b5050505050908060010154908060020160009054906101000a900463ffffffff16905083565b610284610587565b61028e6000610605565b565b60046020528060005260406000206000915054906101000a900473ffffffffffffffffffffffffffffffffffffffff1681565b60008060009054906101000a900473ffffffffffffffffffffffffffffffffffffffff16905090565b6102f4610587565b600073ffffffffffffffffffffffffffffffffffffffff168173ffffffffffffffffffffffffffffffffffffffff1603610363576040517f08c379a000000000000000000000000000000000000000000000000000000000815260040161035a90610c22565b60405180910390fd5b61036c81610605565b50565b600080826040516020016103839190610c7e565b6040516020818303038152906040528051906020012060001c9050600254816103ac9190610abc565b915050919050565b600360405180606001604052808481526020018381526020014263ffffffff16815250908060018154018082558091505060019003906000526020600020906003020160009091909190915060008201518160000190816104159190610e41565b506020820151816001015560408201518160020160006101000a81548163ffffffff021916908363ffffffff16021790555050506000600160038054905061045d9190610b1c565b9050336004600083815260200190815260200160002060006101000a81548173ffffffffffffffffffffffffffffffffffffffff021916908373ffffffffffffffffffffffffffffffffffffffff1602179055506105046001600560003373ffffffffffffffffffffffffffffffffffffffff1673ffffffffffffffffffffffffffffffffffffffff168152602001908152602001600020546106c990919063ffffffff16565b600560003373ffffffffffffffffffffffffffffffffffffffff1673ffffffffffffffffffffffffffffffffffffffff168152602001908152602001600020819055507fa286313a149e0cea81e11106b86767ca305132b605c31895a0c5a5295f2aeb7381848460405161057a93929190610f13565b60405180910390a1505050565b61058f6106df565b73ffffffffffffffffffffffffffffffffffffffff166105ad6102c3565b73ffffffffffffffffffffffffffffffffffffffff1614610603576040517f08c379a00000000000000000000000000000000000000000000000000000000081526004016105fa90610f9d565b60405180910390fd5b565b60008060009054906101000a900473ffffffffffffffffffffffffffffffffffffffff169050816000806101000a81548173ffffffffffffffffffffffffffffffffffffffff021916908373ffffffffffffffffffffffffffffffffffffffff1602179055508173ffffffffffffffffffffffffffffffffffffffff168173ffffffffffffffffffffffffffffffffffffffff167f8be0079c531659141344cd1fd0a4f28419497f9722a3daafe3b4186f6b6457e060405160405180910390a35050565b600081836106d79190610fbd565b905092915050565b600033905090565b6000604051905090565b600080fd5b600080fd5b600080fd5b600080fd5b6000601f19601f8301169050919050565b7f4e487b7100000000000000000000000000000000000000000000000000000000600052604160045260246000fd5b61074e82610705565b810181811067ffffffffffffffff8211171561076d5761076c610716565b5b80604052505050565b60006107806106e7565b905061078c8282610745565b919050565b600067ffffffffffffffff8211156107ac576107ab610716565b5b6107b582610705565b9050602081019050919050565b82818337600083830152505050565b60006107e46107df84610791565b610776565b905082815260208101848484011115610800576107ff610700565b5b61080b8482856107c2565b509392505050565b600082601f830112610828576108276106fb565b5b81356108388482602086016107d1565b91505092915050565b600060208284031215610857576108566106f1565b5b600082013567ffffffffffffffff811115610875576108746106f6565b5b61088184828501610813565b91505092915050565b6000819050919050565b61089d8161088a565b81146108a857600080fd5b50565b6000813590506108ba81610894565b92915050565b6000602082840312156108d6576108d56106f1565b5b60006108e4848285016108ab565b91505092915050565b600081519050919050565b600082825260208201905092915050565b60005b8381101561092757808201518184015260208101905061090c565b60008484015250505050565b600061093e826108ed565b61094881856108f8565b9350610958818560208601610909565b61096181610705565b840191505092915050565b6109758161088a565b82525050565b600063ffffffff82169050919050565b6109948161097b565b82525050565b600060608201905081810360008301526109b48186610933565b90506109c3602083018561096c565b6109d0604083018461098b565b949350505050565b600073ffffffffffffffffffffffffffffffffffffffff82169050919050565b6000610a03826109d8565b9050919050565b610a13816109f8565b82525050565b6000602082019050610a2e6000830184610a0a565b92915050565b610a3d816109f8565b8114610a4857600080fd5b50565b600081359050610a5a81610a34565b92915050565b600060208284031215610a7657610a756106f1565b5b6000610a8484828501610a4b565b91505092915050565b7f4e487b7100000000000000000000000000000000000000000000000000000000600052601260045260246000fd5b6000610ac78261088a565b9150610ad28361088a565b925082610ae257610ae1610a8d565b5b828206905092915050565b7f4e487b7100000000000000000000000000000000000000000000000000000000600052601160045260246000fd5b6000610b278261088a565b9150610b328361088a565b9250828203905081811115610b4a57610b49610aed565b5b92915050565b7f4e487b7100000000000000000000000000000000000000000000000000000000600052602260045260246000fd5b60006002820490506001821680610b9757607f821691505b602082108103610baa57610ba9610b50565b5b50919050565b7f4f776e61626c653a206e6577206f776e657220697320746865207a65726f206160008201527f6464726573730000000000000000000000000000000000000000000000000000602082015250565b6000610c0c6026836108f8565b9150610c1782610bb0565b604082019050919050565b60006020820190508181036000830152610c3b81610bff565b9050919050565b600081905092915050565b6000610c58826108ed565b610c628185610c42565b9350610c72818560208601610909565b80840191505092915050565b6000610c8a8284610c4d565b915081905092915050565b60008190508160005260206000209050919050565b60006020601f8301049050919050565b600082821b905092915050565b600060088302610cf77fffffffffffffffffffffffffffffffffffffffffffffffffffffffffffffffff82610cba565b610d018683610cba565b95508019841693508086168417925050509392505050565b6000819050919050565b6000610d3e610d39610d348461088a565b610d19565b61088a565b9050919050565b6000819050919050565b610d5883610d23565b610d6c610d6482610d45565b848454610cc7565b825550505050565b600090565b610d81610d74565b610d8c818484610d4f565b505050565b5b81811015610db057610da5600082610d79565b600181019050610d92565b5050565b601f821115610df557610dc681610c95565b610dcf84610caa565b81016020851015610dde578190505b610df2610dea85610caa565b830182610d91565b50505b505050565b600082821c905092915050565b6000610e1860001984600802610dfa565b1980831691505092915050565b6000610e318383610e07565b9150826002028217905092915050565b610e4a826108ed565b67ffffffffffffffff811115610e6357610e62610716565b5b610e6d8254610b7f565b610e78828285610db4565b600060209050601f831160018114610eab5760008415610e99578287015190505b610ea38582610e25565b865550610f0b565b601f198416610eb986610c95565b60005b82811015610ee157848901518255600182019150602085019450602081019050610ebc565b86831015610efe5784890151610efa601f891682610e07565b8355505b6001600288020188555050505b505050505050565b6000606082019050610f28600083018661096c565b8181036020830152610f3a8185610933565b9050610f49604083018461096c565b949350505050565b7f4f776e61626c653a2063616c6c6572206973206e6f7420746865206f776e6572600082015250565b6000610f876020836108f8565b9150610f9282610f51565b602082019050919050565b60006020820190508181036000830152610fb681610f7a565b9050919050565b6000610fc88261088a565b9150610fd38361088a565b9250828201905080821115610feb57610fea610aed565b5b9291505056fea264697066735822122004a1b4afdf38a8015056121a25ea44f8422546b43cba6e2e37b899d548d0cf0564736f6c63430008130033",
  "immutableReferences": {},
  "source": "//SPDX-License-Identifier: MIT\r\npragma solidity ^0.8.0;\r\n\r\nimport \"./ownable.sol\";\r\nimport \"./safemath.sol\";\r\n\r\ncontract ArtistryFactory is Ownable {\r\n\r\nusing SafeMath for uint256;\r\n\r\nevent NewArtwork(uint artworkId, string name, uint gene);\r\nuint geneDigits = 16;\r\nuint geneModulus = 10 ** geneDigits;\r\n     \r\nstruct Artwork {\r\n    string name;\r\n    uint gene;\r\n    uint32 createDate;\r\n    }\r\n\r\nArtwork[] public artworks;\r\n\r\nmapping (uint => address) public artworkToOwner;\r\nmapping (address => uint) ownerArtworkCount;\r\n\r\nmodifier onlyOwnerOf(uint _arkworkId) {\r\n    require(msg.sender == artworkToOwner[_arkworkId]);\r\n    _;\r\n  }\r\n\r\nfunction _createArtwork(string memory _name, uint _gene) internal {\r\n    artworks.push(Artwork (_name, _gene, uint32 (block.timestamp)));\r\n    uint id = artworks.length -1;\r\n    artworkToOwner[id] = msg.sender;\r\n    ownerArtworkCount[msg.sender] = ownerArtworkCount[msg.sender].add(1);\r\n    emit NewArtwork (id, _name, _gene);   \r\n}\r\n\r\nfunction _generateRandomGene(string memory _str) private view returns (uint){\r\n    uint rand = uint(keccak256(abi.encodePacked(_str)));\r\n    return rand % geneModulus;\r\n}\r\n\r\nfunction createNewArtwork(string memory _name) public{\r\n    require(ownerArtworkCount[msg.sender] == 0);\r\n    uint randGene = _generateRandomGene(_name);\r\n    randGene = randGene - randGene % 100;\r\n    _createArtwork (_name, randGene);\r\n}\r\n\r\n}",
  "sourcePath": "C:\\Users\\Denchihin\\Desktop\\workspace\\LatinJazz\\contracts\\artistryfactory.sol",
  "compiler": {
    "name": "solc",
    "version": "0.8.19+commit.7dd6d404.Emscripten.clang"
  },
  "schemaVersion": "3.4.13",
  "updatedAt": "2023-05-05T06:24:45.098Z",
  "networkType": "ethereum",
  "devdoc": {
    "kind": "dev",
    "methods": {
      "owner()": {
        "details": "Returns the address of the current owner."
      },
      "renounceOwnership()": {
        "details": "Leaves the contract without owner. It will not be possible to call `onlyOwner` functions. Can only be called by the current owner. NOTE: Renouncing ownership will leave the contract without an owner, thereby disabling any functionality that is only available to the owner."
      },
      "transferOwnership(address)": {
        "details": "Transfers ownership of the contract to a new account (`newOwner`). Can only be called by the current owner."
      }
    },
    "version": 1
  },
  "userdoc": {
    "kind": "user",
    "methods": {},
    "version": 1
  }
}