{
  "contractName": "ArtistryFactory",
  "abi": [
    {
      "anonymous": false,
      "inputs": [
        {
          "indexed": false,
          "internalType": "uint256",
          "name": "artworkId",
          "type": "uint256"
        },
        {
          "indexed": false,
          "internalType": "string",
          "name": "name",
          "type": "string"
        },
        {
          "indexed": false,
          "internalType": "uint256",
          "name": "gene",
          "type": "uint256"
        }
      ],
      "name": "NewArtwork",
      "type": "event"
    },
    {
      "anonymous": false,
      "inputs": [
        {
          "indexed": true,
          "internalType": "address",
          "name": "previousOwner",
          "type": "address"
        },
        {
          "indexed": true,
          "internalType": "address",
          "name": "newOwner",
          "type": "address"
        }
      ],
      "name": "OwnershipTransferred",
      "type": "event"
    },
    {
      "inputs": [
        {
          "internalType": "uint256",
          "name": "",
          "type": "uint256"
        }
      ],
      "name": "artworkToOwner",
      "outputs": [
        {
          "internalType": "address",
          "name": "",
          "type": "address"
        }
      ],
      "stateMutability": "view",
      "type": "function",
      "constant": true
    },
    {
      "inputs": [
        {
          "internalType": "uint256",
          "name": "",
          "type": "uint256"
        }
      ],
      "name": "artworks",
      "outputs": [
        {
          "internalType": "string",
          "name": "name",
          "type": "string"
        },
        {
          "internalType": "uint256",
          "name": "gene",
          "type": "uint256"
        },
        {
          "internalType": "uint32",
          "name": "createDate",
          "type": "uint32"
        }
      ],
      "stateMutability": "view",
      "type": "function",
      "constant": true
    },
    {
      "inputs": [],
      "name": "owner",
      "outputs": [
        {
          "internalType": "address",
          "name": "",
          "type": "address"
        }
      ],
      "stateMutability": "view",
      "type": "function",
      "constant": true
    },
    {
      "inputs": [],
      "name": "renounceOwnership",
      "outputs": [],
      "stateMutability": "nonpayable",
      "type": "function"
    },
    {
      "inputs": [
        {
          "internalType": "address",
          "name": "newOwner",
          "type": "address"
        }
      ],
      "name": "transferOwnership",
      "outputs": [],
      "stateMutability": "nonpayable",
      "type": "function"
    },
    {
      "inputs": [
        {
          "internalType": "string",
          "name": "_name",
          "type": "string"
        }
      ],
      "name": "_createNewArtwork",
      "outputs": [],
      "stateMutability": "nonpayable",
      "type": "function"
    }
  ],
  "bytecode": "0x60806040526010600155600154600a6200001a9190620002aa565b6002553480156200002a57600080fd5b506200004b6200003f6200005160201b60201c565b6200005960201b60201c565b620002fb565b600033905090565b60008060009054906101000a900473ffffffffffffffffffffffffffffffffffffffff169050816000806101000a81548173ffffffffffffffffffffffffffffffffffffffff021916908373ffffffffffffffffffffffffffffffffffffffff1602179055508173ffffffffffffffffffffffffffffffffffffffff168173ffffffffffffffffffffffffffffffffffffffff167f8be0079c531659141344cd1fd0a4f28419497f9722a3daafe3b4186f6b6457e060405160405180910390a35050565b7f4e487b7100000000000000000000000000000000000000000000000000000000600052601160045260246000fd5b60008160011c9050919050565b6000808291508390505b6001851115620001ab578086048111156200018357620001826200011d565b5b6001851615620001935780820291505b8081029050620001a3856200014c565b945062000163565b94509492505050565b600082620001c6576001905062000299565b81620001d6576000905062000299565b8160018114620001ef5760028114620001fa5762000230565b600191505062000299565b60ff8411156200020f576200020e6200011d565b5b8360020a9150848211156200022957620002286200011d565b5b5062000299565b5060208310610133831016604e8410600b84101617156200026a5782820a9050838111156200026457620002636200011d565b5b62000299565b62000279848484600162000159565b925090508184048111156200029357620002926200011d565b5b81810290505b9392505050565b6000819050919050565b6000620002b782620002a0565b9150620002c483620002a0565b9250620002f37fffffffffffffffffffffffffffffffffffffffffffffffffffffffffffffffff8484620001b4565b905092915050565b611027806200030b6000396000f3fe608060405234801561001057600080fd5b50600436106100625760003560e01c80634b60267314610067578063715018a6146100995780638b2bdf25146100a35780638da5cb5b146100d3578063bdd89473146100f1578063f2fde38b1461010d575b600080fd5b610081600480360381019061007c9190610731565b610129565b6040516100909392919061081c565b60405180910390f35b6100a16101fb565b005b6100bd60048036038101906100b89190610731565b61020f565b6040516100ca919061089b565b60405180910390f35b6100db610242565b6040516100e8919061089b565b60405180910390f35b61010b600480360381019061010691906109eb565b61026b565b005b61012760048036038101906101229190610a60565b6102ec565b005b6003818154811061013957600080fd5b906000526020600020906003020160009150905080600001805461015c90610abc565b80601f016020809104026020016040519081016040528092919081815260200182805461018890610abc565b80156101d55780601f106101aa576101008083540402835291602001916101d5565b820191906000526020600020905b8154815290600101906020018083116101b857829003601f168201915b5050505050908060010154908060020160009054906101000a900463ffffffff16905083565b61020361036f565b61020d60006103ed565b565b60046020528060005260406000206000915054906101000a900473ffffffffffffffffffffffffffffffffffffffff1681565b60008060009054906101000a900473ffffffffffffffffffffffffffffffffffffffff16905090565b6000600560003373ffffffffffffffffffffffffffffffffffffffff1673ffffffffffffffffffffffffffffffffffffffff16815260200190815260200160002054146102b757600080fd5b60006102c2826104b1565b90506064816102d19190610b1c565b816102dc9190610b7c565b90506102e882826104f6565b5050565b6102f461036f565b600073ffffffffffffffffffffffffffffffffffffffff168173ffffffffffffffffffffffffffffffffffffffff1603610363576040517f08c379a000000000000000000000000000000000000000000000000000000000815260040161035a90610c22565b60405180910390fd5b61036c816103ed565b50565b6103776106c9565b73ffffffffffffffffffffffffffffffffffffffff16610395610242565b73ffffffffffffffffffffffffffffffffffffffff16146103eb576040517f08c379a00000000000000000000000000000000000000000000000000000000081526004016103e290610c8e565b60405180910390fd5b565b60008060009054906101000a900473ffffffffffffffffffffffffffffffffffffffff169050816000806101000a81548173ffffffffffffffffffffffffffffffffffffffff021916908373ffffffffffffffffffffffffffffffffffffffff1602179055508173ffffffffffffffffffffffffffffffffffffffff168173ffffffffffffffffffffffffffffffffffffffff167f8be0079c531659141344cd1fd0a4f28419497f9722a3daafe3b4186f6b6457e060405160405180910390a35050565b600080826040516020016104c59190610cea565b6040516020818303038152906040528051906020012060001c9050600254816104ee9190610b1c565b915050919050565b600360405180606001604052808481526020018381526020014263ffffffff16815250908060018154018082558091505060019003906000526020600020906003020160009091909190915060008201518160000190816105579190610ead565b506020820151816001015560408201518160020160006101000a81548163ffffffff021916908363ffffffff16021790555050506000600160038054905061059f9190610b7c565b9050336004600083815260200190815260200160002060006101000a81548173ffffffffffffffffffffffffffffffffffffffff021916908373ffffffffffffffffffffffffffffffffffffffff1602179055506106466001600560003373ffffffffffffffffffffffffffffffffffffffff1673ffffffffffffffffffffffffffffffffffffffff168152602001908152602001600020546106d190919063ffffffff16565b600560003373ffffffffffffffffffffffffffffffffffffffff1673ffffffffffffffffffffffffffffffffffffffff168152602001908152602001600020819055507fa286313a149e0cea81e11106b86767ca305132b605c31895a0c5a5295f2aeb738184846040516106bc93929190610f7f565b60405180910390a1505050565b600033905090565b600081836106df9190610fbd565b905092915050565b6000604051905090565b600080fd5b600080fd5b6000819050919050565b61070e816106fb565b811461071957600080fd5b50565b60008135905061072b81610705565b92915050565b600060208284031215610747576107466106f1565b5b60006107558482850161071c565b91505092915050565b600081519050919050565b600082825260208201905092915050565b60005b8381101561079857808201518184015260208101905061077d565b60008484015250505050565b6000601f19601f8301169050919050565b60006107c08261075e565b6107ca8185610769565b93506107da81856020860161077a565b6107e3816107a4565b840191505092915050565b6107f7816106fb565b82525050565b600063ffffffff82169050919050565b610816816107fd565b82525050565b6000606082019050818103600083015261083681866107b5565b905061084560208301856107ee565b610852604083018461080d565b949350505050565b600073ffffffffffffffffffffffffffffffffffffffff82169050919050565b60006108858261085a565b9050919050565b6108958161087a565b82525050565b60006020820190506108b0600083018461088c565b92915050565b600080fd5b600080fd5b7f4e487b7100000000000000000000000000000000000000000000000000000000600052604160045260246000fd5b6108f8826107a4565b810181811067ffffffffffffffff82111715610917576109166108c0565b5b80604052505050565b600061092a6106e7565b905061093682826108ef565b919050565b600067ffffffffffffffff821115610956576109556108c0565b5b61095f826107a4565b9050602081019050919050565b82818337600083830152505050565b600061098e6109898461093b565b610920565b9050828152602081018484840111156109aa576109a96108bb565b5b6109b584828561096c565b509392505050565b600082601f8301126109d2576109d16108b6565b5b81356109e284826020860161097b565b91505092915050565b600060208284031215610a0157610a006106f1565b5b600082013567ffffffffffffffff811115610a1f57610a1e6106f6565b5b610a2b848285016109bd565b91505092915050565b610a3d8161087a565b8114610a4857600080fd5b50565b600081359050610a5a81610a34565b92915050565b600060208284031215610a7657610a756106f1565b5b6000610a8484828501610a4b565b91505092915050565b7f4e487b7100000000000000000000000000000000000000000000000000000000600052602260045260246000fd5b60006002820490506001821680610ad457607f821691505b602082108103610ae757610ae6610a8d565b5b50919050565b7f4e487b7100000000000000000000000000000000000000000000000000000000600052601260045260246000fd5b6000610b27826106fb565b9150610b32836106fb565b925082610b4257610b41610aed565b5b828206905092915050565b7f4e487b7100000000000000000000000000000000000000000000000000000000600052601160045260246000fd5b6000610b87826106fb565b9150610b92836106fb565b9250828203905081811115610baa57610ba9610b4d565b5b92915050565b7f4f776e61626c653a206e6577206f776e657220697320746865207a65726f206160008201527f6464726573730000000000000000000000000000000000000000000000000000602082015250565b6000610c0c602683610769565b9150610c1782610bb0565b604082019050919050565b60006020820190508181036000830152610c3b81610bff565b9050919050565b7f4f776e61626c653a2063616c6c6572206973206e6f7420746865206f776e6572600082015250565b6000610c78602083610769565b9150610c8382610c42565b602082019050919050565b60006020820190508181036000830152610ca781610c6b565b9050919050565b600081905092915050565b6000610cc48261075e565b610cce8185610cae565b9350610cde81856020860161077a565b80840191505092915050565b6000610cf68284610cb9565b915081905092915050565b60008190508160005260206000209050919050565b60006020601f8301049050919050565b600082821b905092915050565b600060088302610d637fffffffffffffffffffffffffffffffffffffffffffffffffffffffffffffffff82610d26565b610d6d8683610d26565b95508019841693508086168417925050509392505050565b6000819050919050565b6000610daa610da5610da0846106fb565b610d85565b6106fb565b9050919050565b6000819050919050565b610dc483610d8f565b610dd8610dd082610db1565b848454610d33565b825550505050565b600090565b610ded610de0565b610df8818484610dbb565b505050565b5b81811015610e1c57610e11600082610de5565b600181019050610dfe565b5050565b601f821115610e6157610e3281610d01565b610e3b84610d16565b81016020851015610e4a578190505b610e5e610e5685610d16565b830182610dfd565b50505b505050565b600082821c905092915050565b6000610e8460001984600802610e66565b1980831691505092915050565b6000610e9d8383610e73565b9150826002028217905092915050565b610eb68261075e565b67ffffffffffffffff811115610ecf57610ece6108c0565b5b610ed98254610abc565b610ee4828285610e20565b600060209050601f831160018114610f175760008415610f05578287015190505b610f0f8582610e91565b865550610f77565b601f198416610f2586610d01565b60005b82811015610f4d57848901518255600182019150602085019450602081019050610f28565b86831015610f6a5784890151610f66601f891682610e73565b8355505b6001600288020188555050505b505050505050565b6000606082019050610f9460008301866107ee565b8181036020830152610fa681856107b5565b9050610fb560408301846107ee565b949350505050565b6000610fc8826106fb565b9150610fd3836106fb565b9250828201905080821115610feb57610fea610b4d565b5b9291505056fea26469706673582212204d21f3164d70e88f4c024755305f1d726ea896247dca9e40a1b7f5a38afb611564736f6c63430008130033",
  "immutableReferences": {},
  "source": "//SPDX-License-Identifier: MIT\r\npragma solidity ^0.8.0;\r\n\r\nimport \"./ownable.sol\";\r\nimport \"./safemath.sol\";\r\n\r\ncontract ArtistryFactory is Ownable {\r\n\r\nusing SafeMath for uint256;\r\n\r\nevent NewArtwork(uint artworkId, string name, uint gene);\r\nuint geneDigits = 16;\r\nuint geneModulus = 10 ** geneDigits;\r\n     \r\nstruct Artwork {\r\n    string name;\r\n    uint gene;\r\n    uint32 createDate;\r\n    }\r\n\r\nArtwork[] public artworks;\r\n\r\nmapping (uint => address) public artworkToOwner;\r\nmapping (address => uint) ownerArtworkCount;\r\n\r\nfunction _createArtwork(string memory _name, uint _gene) internal {\r\n    artworks.push(Artwork (_name, _gene, uint32 (block.timestamp)));\r\n    uint id = artworks.length -1;\r\n    artworkToOwner[id] = msg.sender;\r\n    ownerArtworkCount[msg.sender] = ownerArtworkCount[msg.sender].add(1);\r\n    emit NewArtwork (id, _name, _gene);   \r\n}\r\n\r\nfunction _generateRandomGene(string memory _str) private view returns (uint){\r\n    uint rand = uint(keccak256(abi.encodePacked(_str)));\r\n    return rand % geneModulus;\r\n}\r\n\r\nfunction _createNewArtwork(string memory _name) public{\r\n    require(ownerArtworkCount[msg.sender] == 0);\r\n    uint randGene = _generateRandomGene(_name);\r\n    randGene = randGene - randGene % 100;\r\n    _createArtwork (_name, randGene);\r\n}\r\n\r\n\r\n}",
  "sourcePath": "C:\\Users\\Denchihin\\Desktop\\workspace\\LatinJazz\\contracts\\artistryfactory.sol",
  "compiler": {
    "name": "solc",
    "version": "0.8.19+commit.7dd6d404.Emscripten.clang"
  },
  "schemaVersion": "3.4.13",
  "updatedAt": "2023-04-10T12:26:19.693Z",
  "networkType": "ethereum",
  "devdoc": {
    "kind": "dev",
    "methods": {
      "owner()": {
        "details": "Returns the address of the current owner."
      },
      "renounceOwnership()": {
        "details": "Leaves the contract without owner. It will not be possible to call `onlyOwner` functions. Can only be called by the current owner. NOTE: Renouncing ownership will leave the contract without an owner, thereby disabling any functionality that is only available to the owner."
      },
      "transferOwnership(address)": {
        "details": "Transfers ownership of the contract to a new account (`newOwner`). Can only be called by the current owner."
      }
    },
    "version": 1
  },
  "userdoc": {
    "kind": "user",
    "methods": {},
    "version": 1
  }
}