{
  "contractName": "ArtistryFactory",
  "abi": [
    {
      "anonymous": false,
      "inputs": [
        {
          "indexed": false,
          "internalType": "uint256",
          "name": "artworkId",
          "type": "uint256"
        },
        {
          "indexed": false,
          "internalType": "string",
          "name": "name",
          "type": "string"
        },
        {
          "indexed": false,
          "internalType": "uint256",
          "name": "gene",
          "type": "uint256"
        }
      ],
      "name": "NewArtwork",
      "type": "event"
    },
    {
      "inputs": [
        {
          "internalType": "uint256",
          "name": "",
          "type": "uint256"
        }
      ],
      "name": "artworkToOwner",
      "outputs": [
        {
          "internalType": "address",
          "name": "",
          "type": "address"
        }
      ],
      "stateMutability": "view",
      "type": "function",
      "constant": true
    },
    {
      "inputs": [
        {
          "internalType": "uint256",
          "name": "",
          "type": "uint256"
        }
      ],
      "name": "artworks",
      "outputs": [
        {
          "internalType": "string",
          "name": "name",
          "type": "string"
        },
        {
          "internalType": "uint256",
          "name": "gene",
          "type": "uint256"
        },
        {
          "internalType": "uint32",
          "name": "createDate",
          "type": "uint32"
        }
      ],
      "stateMutability": "view",
      "type": "function",
      "constant": true
    },
    {
      "inputs": [
        {
          "internalType": "string",
          "name": "_name",
          "type": "string"
        }
      ],
      "name": "_createNewArtwork",
      "outputs": [],
      "stateMutability": "nonpayable",
      "type": "function"
    }
  ],
  "bytecode": "0x60806040526010600055600054600a6200001a9190620001be565b6001553480156200002a57600080fd5b506200020f565b7f4e487b7100000000000000000000000000000000000000000000000000000000600052601160045260246000fd5b60008160011c9050919050565b6000808291508390505b6001851115620000bf5780860481111562000097576200009662000031565b5b6001851615620000a75780820291505b8081029050620000b78562000060565b945062000077565b94509492505050565b600082620000da5760019050620001ad565b81620000ea5760009050620001ad565b81600181146200010357600281146200010e5762000144565b6001915050620001ad565b60ff84111562000123576200012262000031565b5b8360020a9150848211156200013d576200013c62000031565b5b50620001ad565b5060208310610133831016604e8410600b84101617156200017e5782820a90508381111562000178576200017762000031565b5b620001ad565b6200018d84848460016200006d565b92509050818404811115620001a757620001a662000031565b5b81810290505b9392505050565b6000819050919050565b6000620001cb82620001b4565b9150620001d883620001b4565b9250620002077fffffffffffffffffffffffffffffffffffffffffffffffffffffffffffffffff8484620000c8565b905092915050565b610c1e806200021f6000396000f3fe608060405234801561001057600080fd5b50600436106100415760003560e01c80634b602673146100465780638b2bdf2514610078578063bdd89473146100a8575b600080fd5b610060600480360381019061005b919061046b565b6100c4565b60405161006f93929190610556565b60405180910390f35b610092600480360381019061008d919061046b565b610196565b60405161009f91906105d5565b60405180910390f35b6100c260048036038101906100bd9190610725565b6101c9565b005b600281815481106100d457600080fd5b90600052602060002090600302016000915090508060000180546100f79061079d565b80601f01602080910402602001604051908101604052809291908181526020018280546101239061079d565b80156101705780601f1061014557610100808354040283529160200191610170565b820191906000526020600020905b81548152906001019060200180831161015357829003601f168201915b5050505050908060010154908060020160009054906101000a900463ffffffff16905083565b60036020528060005260406000206000915054906101000a900473ffffffffffffffffffffffffffffffffffffffff1681565b6000600460003373ffffffffffffffffffffffffffffffffffffffff1673ffffffffffffffffffffffffffffffffffffffff168152602001908152602001600020541461021557600080fd5b60006102208261024a565b905060648161022f91906107fd565b8161023a919061085d565b9050610246828261028f565b5050565b6000808260405160200161025e91906108cd565b6040516020818303038152906040528051906020012060001c90506001548161028791906107fd565b915050919050565b600260405180606001604052808481526020018381526020014263ffffffff16815250908060018154018082558091505060019003906000526020600020906003020160009091909190915060008201518160000190816102f09190610a90565b506020820151816001015560408201518160020160006101000a81548163ffffffff021916908363ffffffff160217905550505060006001600280549050610338919061085d565b9050336003600083815260200190815260200160002060006101000a81548173ffffffffffffffffffffffffffffffffffffffff021916908373ffffffffffffffffffffffffffffffffffffffff160217905550600460003373ffffffffffffffffffffffffffffffffffffffff1673ffffffffffffffffffffffffffffffffffffffff16815260200190815260200160002060008154809291906103dc90610b62565b91905055507fa286313a149e0cea81e11106b86767ca305132b605c31895a0c5a5295f2aeb7381848460405161041493929190610baa565b60405180910390a1505050565b6000604051905090565b600080fd5b600080fd5b6000819050919050565b61044881610435565b811461045357600080fd5b50565b6000813590506104658161043f565b92915050565b6000602082840312156104815761048061042b565b5b600061048f84828501610456565b91505092915050565b600081519050919050565b600082825260208201905092915050565b60005b838110156104d25780820151818401526020810190506104b7565b60008484015250505050565b6000601f19601f8301169050919050565b60006104fa82610498565b61050481856104a3565b93506105148185602086016104b4565b61051d816104de565b840191505092915050565b61053181610435565b82525050565b600063ffffffff82169050919050565b61055081610537565b82525050565b6000606082019050818103600083015261057081866104ef565b905061057f6020830185610528565b61058c6040830184610547565b949350505050565b600073ffffffffffffffffffffffffffffffffffffffff82169050919050565b60006105bf82610594565b9050919050565b6105cf816105b4565b82525050565b60006020820190506105ea60008301846105c6565b92915050565b600080fd5b600080fd5b7f4e487b7100000000000000000000000000000000000000000000000000000000600052604160045260246000fd5b610632826104de565b810181811067ffffffffffffffff82111715610651576106506105fa565b5b80604052505050565b6000610664610421565b90506106708282610629565b919050565b600067ffffffffffffffff8211156106905761068f6105fa565b5b610699826104de565b9050602081019050919050565b82818337600083830152505050565b60006106c86106c384610675565b61065a565b9050828152602081018484840111156106e4576106e36105f5565b5b6106ef8482856106a6565b509392505050565b600082601f83011261070c5761070b6105f0565b5b813561071c8482602086016106b5565b91505092915050565b60006020828403121561073b5761073a61042b565b5b600082013567ffffffffffffffff81111561075957610758610430565b5b610765848285016106f7565b91505092915050565b7f4e487b7100000000000000000000000000000000000000000000000000000000600052602260045260246000fd5b600060028204905060018216806107b557607f821691505b6020821081036107c8576107c761076e565b5b50919050565b7f4e487b7100000000000000000000000000000000000000000000000000000000600052601260045260246000fd5b600061080882610435565b915061081383610435565b925082610823576108226107ce565b5b828206905092915050565b7f4e487b7100000000000000000000000000000000000000000000000000000000600052601160045260246000fd5b600061086882610435565b915061087383610435565b925082820390508181111561088b5761088a61082e565b5b92915050565b600081905092915050565b60006108a782610498565b6108b18185610891565b93506108c18185602086016104b4565b80840191505092915050565b60006108d9828461089c565b915081905092915050565b60008190508160005260206000209050919050565b60006020601f8301049050919050565b600082821b905092915050565b6000600883026109467fffffffffffffffffffffffffffffffffffffffffffffffffffffffffffffffff82610909565b6109508683610909565b95508019841693508086168417925050509392505050565b6000819050919050565b600061098d61098861098384610435565b610968565b610435565b9050919050565b6000819050919050565b6109a783610972565b6109bb6109b382610994565b848454610916565b825550505050565b600090565b6109d06109c3565b6109db81848461099e565b505050565b5b818110156109ff576109f46000826109c8565b6001810190506109e1565b5050565b601f821115610a4457610a15816108e4565b610a1e846108f9565b81016020851015610a2d578190505b610a41610a39856108f9565b8301826109e0565b50505b505050565b600082821c905092915050565b6000610a6760001984600802610a49565b1980831691505092915050565b6000610a808383610a56565b9150826002028217905092915050565b610a9982610498565b67ffffffffffffffff811115610ab257610ab16105fa565b5b610abc825461079d565b610ac7828285610a03565b600060209050601f831160018114610afa5760008415610ae8578287015190505b610af28582610a74565b865550610b5a565b601f198416610b08866108e4565b60005b82811015610b3057848901518255600182019150602085019450602081019050610b0b565b86831015610b4d5784890151610b49601f891682610a56565b8355505b6001600288020188555050505b505050505050565b6000610b6d82610435565b91507fffffffffffffffffffffffffffffffffffffffffffffffffffffffffffffffff8203610b9f57610b9e61082e565b5b600182019050919050565b6000606082019050610bbf6000830186610528565b8181036020830152610bd181856104ef565b9050610be06040830184610528565b94935050505056fea26469706673582212204e9b956264b9b4b5b26524fb20ac49def62e16dbdd89ba54eed45ecfecb7c8d564736f6c63430008130033",
  "immutableReferences": {},
  "source": "//SPDX-License-Identifier: UNLICENSED\r\npragma solidity ^0.8.19;\r\ncontract ArtistryFactory {\r\n\r\nevent NewArtwork(uint artworkId, string name, uint gene);\r\nuint geneDigits = 16;\r\nuint geneModulus = 10 ** geneDigits;\r\n     \r\nstruct Artwork {\r\n    string name;\r\n    uint gene;\r\n    uint32 createDate;\r\n    }\r\n\r\nArtwork[] public artworks;\r\n\r\nmapping (uint => address) public artworkToOwner;\r\nmapping (address => uint) ownerArtworkCount;\r\n\r\nfunction _createArtwork(string memory _name, uint _gene) internal {\r\n    artworks.push(Artwork (_name, _gene, uint32 (block.timestamp)));\r\n    uint id = artworks.length -1;\r\n    artworkToOwner[id] = msg.sender;\r\n    ownerArtworkCount[msg.sender] ++;\r\n    emit NewArtwork (id, _name, _gene);   \r\n}\r\n\r\nfunction _generateRandomGene(string memory _str) private view returns (uint){\r\n    uint rand = uint(keccak256(abi.encodePacked(_str)));\r\n    return rand % geneModulus;\r\n}\r\n\r\nfunction _createNewArtwork(string memory _name) public{\r\n    require(ownerArtworkCount[msg.sender] == 0);\r\n    uint randGene = _generateRandomGene(_name);\r\n    randGene = randGene - randGene % 100;\r\n    _createArtwork (_name, randGene);\r\n}\r\n\r\n\r\n}",
  "sourcePath": "C:\\Users\\Denchihin\\Desktop\\workspace\\LatinJazz\\contracts\\artistryfactory.sol",
  "compiler": {
    "name": "solc",
    "version": "0.8.19+commit.7dd6d404.Emscripten.clang"
  },
  "schemaVersion": "3.4.13",
  "updatedAt": "2023-04-10T09:17:17.896Z",
  "networkType": "ethereum",
  "devdoc": {
    "kind": "dev",
    "methods": {},
    "version": 1
  },
  "userdoc": {
    "kind": "user",
    "methods": {},
    "version": 1
  }
}