{
  "contractName": "ArtworkOwnership",
  "abi": [
    {
      "anonymous": false,
      "inputs": [
        {
          "indexed": true,
          "internalType": "address",
          "name": "_owner",
          "type": "address"
        },
        {
          "indexed": true,
          "internalType": "address",
          "name": "_approved",
          "type": "address"
        },
        {
          "indexed": true,
          "internalType": "uint256",
          "name": "_tokenId",
          "type": "uint256"
        }
      ],
      "name": "Approval",
      "type": "event"
    },
    {
      "anonymous": false,
      "inputs": [
        {
          "indexed": false,
          "internalType": "uint256",
          "name": "artworkId",
          "type": "uint256"
        },
        {
          "indexed": false,
          "internalType": "string",
          "name": "name",
          "type": "string"
        },
        {
          "indexed": false,
          "internalType": "uint256",
          "name": "gene",
          "type": "uint256"
        }
      ],
      "name": "NewArtwork",
      "type": "event"
    },
    {
      "anonymous": false,
      "inputs": [
        {
          "indexed": true,
          "internalType": "address",
          "name": "previousOwner",
          "type": "address"
        },
        {
          "indexed": true,
          "internalType": "address",
          "name": "newOwner",
          "type": "address"
        }
      ],
      "name": "OwnershipTransferred",
      "type": "event"
    },
    {
      "anonymous": false,
      "inputs": [
        {
          "indexed": true,
          "internalType": "address",
          "name": "_from",
          "type": "address"
        },
        {
          "indexed": true,
          "internalType": "address",
          "name": "_to",
          "type": "address"
        },
        {
          "indexed": true,
          "internalType": "uint256",
          "name": "_tokenId",
          "type": "uint256"
        }
      ],
      "name": "Transfer",
      "type": "event"
    },
    {
      "inputs": [
        {
          "internalType": "uint256",
          "name": "",
          "type": "uint256"
        }
      ],
      "name": "artworkToOwner",
      "outputs": [
        {
          "internalType": "address",
          "name": "",
          "type": "address"
        }
      ],
      "stateMutability": "view",
      "type": "function",
      "constant": true
    },
    {
      "inputs": [
        {
          "internalType": "uint256",
          "name": "",
          "type": "uint256"
        }
      ],
      "name": "artworks",
      "outputs": [
        {
          "internalType": "string",
          "name": "name",
          "type": "string"
        },
        {
          "internalType": "uint256",
          "name": "gene",
          "type": "uint256"
        },
        {
          "internalType": "uint32",
          "name": "createDate",
          "type": "uint32"
        }
      ],
      "stateMutability": "view",
      "type": "function",
      "constant": true
    },
    {
      "inputs": [
        {
          "internalType": "string",
          "name": "_name",
          "type": "string"
        }
      ],
      "name": "createNewArtwork",
      "outputs": [],
      "stateMutability": "nonpayable",
      "type": "function"
    },
    {
      "inputs": [],
      "name": "owner",
      "outputs": [
        {
          "internalType": "address",
          "name": "",
          "type": "address"
        }
      ],
      "stateMutability": "view",
      "type": "function",
      "constant": true
    },
    {
      "inputs": [],
      "name": "renounceOwnership",
      "outputs": [],
      "stateMutability": "nonpayable",
      "type": "function"
    },
    {
      "inputs": [
        {
          "internalType": "address",
          "name": "newOwner",
          "type": "address"
        }
      ],
      "name": "transferOwnership",
      "outputs": [],
      "stateMutability": "nonpayable",
      "type": "function"
    },
    {
      "inputs": [
        {
          "internalType": "address",
          "name": "_owner",
          "type": "address"
        }
      ],
      "name": "balanceOf",
      "outputs": [
        {
          "internalType": "uint256",
          "name": "",
          "type": "uint256"
        }
      ],
      "stateMutability": "view",
      "type": "function",
      "constant": true
    },
    {
      "inputs": [
        {
          "internalType": "uint256",
          "name": "_tokenId",
          "type": "uint256"
        }
      ],
      "name": "ownerOf",
      "outputs": [
        {
          "internalType": "address",
          "name": "",
          "type": "address"
        }
      ],
      "stateMutability": "view",
      "type": "function",
      "constant": true
    },
    {
      "inputs": [
        {
          "internalType": "address",
          "name": "_from",
          "type": "address"
        },
        {
          "internalType": "address",
          "name": "_to",
          "type": "address"
        },
        {
          "internalType": "uint256",
          "name": "_tokenId",
          "type": "uint256"
        }
      ],
      "name": "transferFrom",
      "outputs": [],
      "stateMutability": "payable",
      "type": "function",
      "payable": true
    },
    {
      "inputs": [
        {
          "internalType": "address",
          "name": "_approved",
          "type": "address"
        },
        {
          "internalType": "uint256",
          "name": "_tokenId",
          "type": "uint256"
        }
      ],
      "name": "approve",
      "outputs": [],
      "stateMutability": "payable",
      "type": "function",
      "payable": true
    }
  ],
  "bytecode": "0x60806040526010600155600154600a6200001a9190620002aa565b6002553480156200002a57600080fd5b506200004b6200003f6200005160201b60201c565b6200005960201b60201c565b620002fb565b600033905090565b60008060009054906101000a900473ffffffffffffffffffffffffffffffffffffffff169050816000806101000a81548173ffffffffffffffffffffffffffffffffffffffff021916908373ffffffffffffffffffffffffffffffffffffffff1602179055508173ffffffffffffffffffffffffffffffffffffffff168173ffffffffffffffffffffffffffffffffffffffff167f8be0079c531659141344cd1fd0a4f28419497f9722a3daafe3b4186f6b6457e060405160405180910390a35050565b7f4e487b7100000000000000000000000000000000000000000000000000000000600052601160045260246000fd5b60008160011c9050919050565b6000808291508390505b6001851115620001ab578086048111156200018357620001826200011d565b5b6001851615620001935780820291505b8081029050620001a3856200014c565b945062000163565b94509492505050565b600082620001c6576001905062000299565b81620001d6576000905062000299565b8160018114620001ef5760028114620001fa5762000230565b600191505062000299565b60ff8411156200020f576200020e6200011d565b5b8360020a9150848211156200022957620002286200011d565b5b5062000299565b5060208310610133831016604e8410600b84101617156200026a5782820a9050838111156200026457620002636200011d565b5b62000299565b62000279848484600162000159565b925090508184048111156200029357620002926200011d565b5b81810290505b9392505050565b6000819050919050565b6000620002b782620002a0565b9150620002c483620002a0565b9250620002f37fffffffffffffffffffffffffffffffffffffffffffffffffffffffffffffffff8484620001b4565b905092915050565b611680806200030b6000396000f3fe6080604052600436106100915760003560e01c806370a082311161005957806370a0823114610173578063715018a6146101b05780638b2bdf25146101c75780638da5cb5b14610204578063f2fde38b1461022f57610091565b8063095ea7b31461009657806323b872dd146100b2578063345cff12146100ce5780634b602673146100f75780636352211e14610136575b600080fd5b6100b060048036038101906100ab9190610d3a565b610258565b005b6100cc60048036038101906100c79190610d7a565b610376565b005b3480156100da57600080fd5b506100f560048036038101906100f09190610f13565b61045a565b005b34801561010357600080fd5b5061011e60048036038101906101199190610f5c565b6104db565b60405161012d93929190611036565b60405180910390f35b34801561014257600080fd5b5061015d60048036038101906101589190610f5c565b6105ad565b60405161016a9190611083565b60405180910390f35b34801561017f57600080fd5b5061019a6004803603810190610195919061109e565b6105ea565b6040516101a791906110cb565b60405180910390f35b3480156101bc57600080fd5b506101c5610633565b005b3480156101d357600080fd5b506101ee60048036038101906101e99190610f5c565b610647565b6040516101fb9190611083565b60405180910390f35b34801561021057600080fd5b5061021961067a565b6040516102269190611083565b60405180910390f35b34801561023b57600080fd5b506102566004803603810190610251919061109e565b6106a3565b005b806004600082815260200190815260200160002060009054906101000a900473ffffffffffffffffffffffffffffffffffffffff1673ffffffffffffffffffffffffffffffffffffffff163373ffffffffffffffffffffffffffffffffffffffff16146102c457600080fd5b826006600084815260200190815260200160002060006101000a81548173ffffffffffffffffffffffffffffffffffffffff021916908373ffffffffffffffffffffffffffffffffffffffff160217905550818373ffffffffffffffffffffffffffffffffffffffff163373ffffffffffffffffffffffffffffffffffffffff167f8c5be1e5ebec7d5bd14f71427d1e84f3dd0314c0f7b2291e5b200ac8c7c3b92560405160405180910390a4505050565b3373ffffffffffffffffffffffffffffffffffffffff166004600083815260200190815260200160002060009054906101000a900473ffffffffffffffffffffffffffffffffffffffff1673ffffffffffffffffffffffffffffffffffffffff16148061044157503373ffffffffffffffffffffffffffffffffffffffff166006600083815260200190815260200160002060009054906101000a900473ffffffffffffffffffffffffffffffffffffffff1673ffffffffffffffffffffffffffffffffffffffff16145b61044a57600080fd5b610455838383610726565b505050565b6000600560003373ffffffffffffffffffffffffffffffffffffffff1673ffffffffffffffffffffffffffffffffffffffff16815260200190815260200160002054146104a657600080fd5b60006104b182610904565b90506064816104c09190611115565b816104cb9190611175565b90506104d78282610949565b5050565b600381815481106104eb57600080fd5b906000526020600020906003020160009150905080600001805461050e906111d8565b80601f016020809104026020016040519081016040528092919081815260200182805461053a906111d8565b80156105875780601f1061055c57610100808354040283529160200191610587565b820191906000526020600020905b81548152906001019060200180831161056a57829003601f168201915b5050505050908060010154908060020160009054906101000a900463ffffffff16905083565b60006004600083815260200190815260200160002060009054906101000a900473ffffffffffffffffffffffffffffffffffffffff169050919050565b6000600560008373ffffffffffffffffffffffffffffffffffffffff1673ffffffffffffffffffffffffffffffffffffffff168152602001908152602001600020549050919050565b61063b610b1c565b6106456000610b9a565b565b60046020528060005260406000206000915054906101000a900473ffffffffffffffffffffffffffffffffffffffff1681565b60008060009054906101000a900473ffffffffffffffffffffffffffffffffffffffff16905090565b6106ab610b1c565b600073ffffffffffffffffffffffffffffffffffffffff168173ffffffffffffffffffffffffffffffffffffffff160361071a576040517f08c379a00000000000000000000000000000000000000000000000000000000081526004016107119061127b565b60405180910390fd5b61072381610b9a565b50565b6107796001600560008573ffffffffffffffffffffffffffffffffffffffff1673ffffffffffffffffffffffffffffffffffffffff16815260200190815260200160002054610c5e90919063ffffffff16565b600560008473ffffffffffffffffffffffffffffffffffffffff1673ffffffffffffffffffffffffffffffffffffffff1681526020019081526020016000208190555061080f6001600560003373ffffffffffffffffffffffffffffffffffffffff1673ffffffffffffffffffffffffffffffffffffffff16815260200190815260200160002054610c7490919063ffffffff16565b600560003373ffffffffffffffffffffffffffffffffffffffff1673ffffffffffffffffffffffffffffffffffffffff16815260200190815260200160002081905550816004600083815260200190815260200160002060006101000a81548173ffffffffffffffffffffffffffffffffffffffff021916908373ffffffffffffffffffffffffffffffffffffffff160217905550808273ffffffffffffffffffffffffffffffffffffffff168473ffffffffffffffffffffffffffffffffffffffff167fddf252ad1be2c89b69c2b068fc378daa952ba7f163c4a11628f55a4df523b3ef60405160405180910390a4505050565b6000808260405160200161091891906112d7565b6040516020818303038152906040528051906020012060001c9050600254816109419190611115565b915050919050565b600360405180606001604052808481526020018381526020014263ffffffff16815250908060018154018082558091505060019003906000526020600020906003020160009091909190915060008201518160000190816109aa919061149a565b506020820151816001015560408201518160020160006101000a81548163ffffffff021916908363ffffffff1602179055505050600060016003805490506109f29190611175565b9050336004600083815260200190815260200160002060006101000a81548173ffffffffffffffffffffffffffffffffffffffff021916908373ffffffffffffffffffffffffffffffffffffffff160217905550610a996001600560003373ffffffffffffffffffffffffffffffffffffffff1673ffffffffffffffffffffffffffffffffffffffff16815260200190815260200160002054610c5e90919063ffffffff16565b600560003373ffffffffffffffffffffffffffffffffffffffff1673ffffffffffffffffffffffffffffffffffffffff168152602001908152602001600020819055507fa286313a149e0cea81e11106b86767ca305132b605c31895a0c5a5295f2aeb73818484604051610b0f9392919061156c565b60405180910390a1505050565b610b24610c8a565b73ffffffffffffffffffffffffffffffffffffffff16610b4261067a565b73ffffffffffffffffffffffffffffffffffffffff1614610b98576040517f08c379a0000000000000000000000000000000000000000000000000000000008152600401610b8f906115f6565b60405180910390fd5b565b60008060009054906101000a900473ffffffffffffffffffffffffffffffffffffffff169050816000806101000a81548173ffffffffffffffffffffffffffffffffffffffff021916908373ffffffffffffffffffffffffffffffffffffffff1602179055508173ffffffffffffffffffffffffffffffffffffffff168173ffffffffffffffffffffffffffffffffffffffff167f8be0079c531659141344cd1fd0a4f28419497f9722a3daafe3b4186f6b6457e060405160405180910390a35050565b60008183610c6c9190611616565b905092915050565b60008183610c829190611175565b905092915050565b600033905090565b6000604051905090565b600080fd5b600080fd5b600073ffffffffffffffffffffffffffffffffffffffff82169050919050565b6000610cd182610ca6565b9050919050565b610ce181610cc6565b8114610cec57600080fd5b50565b600081359050610cfe81610cd8565b92915050565b6000819050919050565b610d1781610d04565b8114610d2257600080fd5b50565b600081359050610d3481610d0e565b92915050565b60008060408385031215610d5157610d50610c9c565b5b6000610d5f85828601610cef565b9250506020610d7085828601610d25565b9150509250929050565b600080600060608486031215610d9357610d92610c9c565b5b6000610da186828701610cef565b9350506020610db286828701610cef565b9250506040610dc386828701610d25565b9150509250925092565b600080fd5b600080fd5b6000601f19601f8301169050919050565b7f4e487b7100000000000000000000000000000000000000000000000000000000600052604160045260246000fd5b610e2082610dd7565b810181811067ffffffffffffffff82111715610e3f57610e3e610de8565b5b80604052505050565b6000610e52610c92565b9050610e5e8282610e17565b919050565b600067ffffffffffffffff821115610e7e57610e7d610de8565b5b610e8782610dd7565b9050602081019050919050565b82818337600083830152505050565b6000610eb6610eb184610e63565b610e48565b905082815260208101848484011115610ed257610ed1610dd2565b5b610edd848285610e94565b509392505050565b600082601f830112610efa57610ef9610dcd565b5b8135610f0a848260208601610ea3565b91505092915050565b600060208284031215610f2957610f28610c9c565b5b600082013567ffffffffffffffff811115610f4757610f46610ca1565b5b610f5384828501610ee5565b91505092915050565b600060208284031215610f7257610f71610c9c565b5b6000610f8084828501610d25565b91505092915050565b600081519050919050565b600082825260208201905092915050565b60005b83811015610fc3578082015181840152602081019050610fa8565b60008484015250505050565b6000610fda82610f89565b610fe48185610f94565b9350610ff4818560208601610fa5565b610ffd81610dd7565b840191505092915050565b61101181610d04565b82525050565b600063ffffffff82169050919050565b61103081611017565b82525050565b600060608201905081810360008301526110508186610fcf565b905061105f6020830185611008565b61106c6040830184611027565b949350505050565b61107d81610cc6565b82525050565b60006020820190506110986000830184611074565b92915050565b6000602082840312156110b4576110b3610c9c565b5b60006110c284828501610cef565b91505092915050565b60006020820190506110e06000830184611008565b92915050565b7f4e487b7100000000000000000000000000000000000000000000000000000000600052601260045260246000fd5b600061112082610d04565b915061112b83610d04565b92508261113b5761113a6110e6565b5b828206905092915050565b7f4e487b7100000000000000000000000000000000000000000000000000000000600052601160045260246000fd5b600061118082610d04565b915061118b83610d04565b92508282039050818111156111a3576111a2611146565b5b92915050565b7f4e487b7100000000000000000000000000000000000000000000000000000000600052602260045260246000fd5b600060028204905060018216806111f057607f821691505b602082108103611203576112026111a9565b5b50919050565b7f4f776e61626c653a206e6577206f776e657220697320746865207a65726f206160008201527f6464726573730000000000000000000000000000000000000000000000000000602082015250565b6000611265602683610f94565b915061127082611209565b604082019050919050565b6000602082019050818103600083015261129481611258565b9050919050565b600081905092915050565b60006112b182610f89565b6112bb818561129b565b93506112cb818560208601610fa5565b80840191505092915050565b60006112e382846112a6565b915081905092915050565b60008190508160005260206000209050919050565b60006020601f8301049050919050565b600082821b905092915050565b6000600883026113507fffffffffffffffffffffffffffffffffffffffffffffffffffffffffffffffff82611313565b61135a8683611313565b95508019841693508086168417925050509392505050565b6000819050919050565b600061139761139261138d84610d04565b611372565b610d04565b9050919050565b6000819050919050565b6113b18361137c565b6113c56113bd8261139e565b848454611320565b825550505050565b600090565b6113da6113cd565b6113e58184846113a8565b505050565b5b81811015611409576113fe6000826113d2565b6001810190506113eb565b5050565b601f82111561144e5761141f816112ee565b61142884611303565b81016020851015611437578190505b61144b61144385611303565b8301826113ea565b50505b505050565b600082821c905092915050565b600061147160001984600802611453565b1980831691505092915050565b600061148a8383611460565b9150826002028217905092915050565b6114a382610f89565b67ffffffffffffffff8111156114bc576114bb610de8565b5b6114c682546111d8565b6114d182828561140d565b600060209050601f83116001811461150457600084156114f2578287015190505b6114fc858261147e565b865550611564565b601f198416611512866112ee565b60005b8281101561153a57848901518255600182019150602085019450602081019050611515565b868310156115575784890151611553601f891682611460565b8355505b6001600288020188555050505b505050505050565b60006060820190506115816000830186611008565b81810360208301526115938185610fcf565b90506115a26040830184611008565b949350505050565b7f4f776e61626c653a2063616c6c6572206973206e6f7420746865206f776e6572600082015250565b60006115e0602083610f94565b91506115eb826115aa565b602082019050919050565b6000602082019050818103600083015261160f816115d3565b9050919050565b600061162182610d04565b915061162c83610d04565b925082820190508082111561164457611643611146565b5b9291505056fea264697066735822122036f9130cd02d8e0a493d5ffe8f6bbce991d2c1adfad1a366b923c274dab2e2ed64736f6c63430008130033",
  "immutableReferences": {},
  "source": "//SPDX-License-Identifier: MIT\r\npragma solidity ^0.8.0;\r\n\r\nimport \"./safemath.sol\";\r\nimport \"./artistryfactory.sol\";\r\nimport \"./erc721.sol\";\r\n\r\ncontract ArtworkOwnership is ArtistryFactory{\r\n\r\nevent Transfer(address indexed _from, address indexed _to, uint256 indexed _tokenId);\r\nevent Approval(address indexed _owner, address indexed _approved, uint256 indexed _tokenId);\r\n\r\nusing SafeMath for uint256;\r\n\r\nmapping (uint => address) artworksApprovals;\r\n\r\nfunction balanceOf(address _owner) external view returns (uint256) {\r\n    return ownerArtworkCount[_owner];\r\n  }\r\n\r\nfunction ownerOf(uint256 _tokenId) external view returns (address) {\r\n    return artworkToOwner[_tokenId];\r\n  }\r\n\r\nfunction _transfer(address _from, address _to, uint256 _tokenId) private {\r\n    ownerArtworkCount[_to] = ownerArtworkCount[_to].add(1);\r\n    ownerArtworkCount[msg.sender] = ownerArtworkCount[msg.sender].sub(1);\r\n    artworkToOwner[_tokenId] = _to;\r\n    emit Transfer(_from, _to, _tokenId);\r\n  }\r\n\r\nfunction transferFrom(address _from, address _to, uint256 _tokenId) external payable {\r\n    require (artworkToOwner[_tokenId] == msg.sender || artworksApprovals[_tokenId] == msg.sender);\r\n    _transfer(_from, _to, _tokenId);\r\n  }\r\n\r\n  function approve(address _approved, uint256 _tokenId) external payable onlyOwnerOf(_tokenId) {\r\n    artworksApprovals[_tokenId] = _approved;\r\n    emit Approval(msg.sender, _approved, _tokenId);\r\n  }\r\n\r\n}",
  "sourcePath": "C:\\Users\\Denchihin\\Desktop\\workspace\\LatinJazz\\contracts\\artworkownership.sol",
  "compiler": {
    "name": "solc",
    "version": "0.8.19+commit.7dd6d404.Emscripten.clang"
  },
  "schemaVersion": "3.4.13",
  "updatedAt": "2023-05-05T06:24:45.120Z",
  "networkType": "ethereum",
  "devdoc": {
    "kind": "dev",
    "methods": {
      "owner()": {
        "details": "Returns the address of the current owner."
      },
      "renounceOwnership()": {
        "details": "Leaves the contract without owner. It will not be possible to call `onlyOwner` functions. Can only be called by the current owner. NOTE: Renouncing ownership will leave the contract without an owner, thereby disabling any functionality that is only available to the owner."
      },
      "transferOwnership(address)": {
        "details": "Transfers ownership of the contract to a new account (`newOwner`). Can only be called by the current owner."
      }
    },
    "version": 1
  },
  "userdoc": {
    "kind": "user",
    "methods": {},
    "version": 1
  }
}