{
  "contractName": "ArtworkOwnership",
  "abi": [
    {
      "anonymous": false,
      "inputs": [
        {
          "indexed": true,
          "internalType": "address",
          "name": "_owner",
          "type": "address"
        },
        {
          "indexed": true,
          "internalType": "address",
          "name": "_approved",
          "type": "address"
        },
        {
          "indexed": true,
          "internalType": "uint256",
          "name": "_tokenId",
          "type": "uint256"
        }
      ],
      "name": "Approval",
      "type": "event"
    },
    {
      "anonymous": false,
      "inputs": [
        {
          "indexed": false,
          "internalType": "uint256",
          "name": "artworkId",
          "type": "uint256"
        },
        {
          "indexed": false,
          "internalType": "string",
          "name": "name",
          "type": "string"
        },
        {
          "indexed": false,
          "internalType": "uint256",
          "name": "gene",
          "type": "uint256"
        }
      ],
      "name": "NewArtwork",
      "type": "event"
    },
    {
      "anonymous": false,
      "inputs": [
        {
          "indexed": true,
          "internalType": "address",
          "name": "previousOwner",
          "type": "address"
        },
        {
          "indexed": true,
          "internalType": "address",
          "name": "newOwner",
          "type": "address"
        }
      ],
      "name": "OwnershipTransferred",
      "type": "event"
    },
    {
      "anonymous": false,
      "inputs": [
        {
          "indexed": true,
          "internalType": "address",
          "name": "_from",
          "type": "address"
        },
        {
          "indexed": true,
          "internalType": "address",
          "name": "_to",
          "type": "address"
        },
        {
          "indexed": true,
          "internalType": "uint256",
          "name": "_tokenId",
          "type": "uint256"
        }
      ],
      "name": "Transfer",
      "type": "event"
    },
    {
      "inputs": [
        {
          "internalType": "string",
          "name": "_name",
          "type": "string"
        }
      ],
      "name": "_createNewArtwork",
      "outputs": [],
      "stateMutability": "nonpayable",
      "type": "function"
    },
    {
      "inputs": [
        {
          "internalType": "uint256",
          "name": "",
          "type": "uint256"
        }
      ],
      "name": "artworkToOwner",
      "outputs": [
        {
          "internalType": "address",
          "name": "",
          "type": "address"
        }
      ],
      "stateMutability": "view",
      "type": "function",
      "constant": true
    },
    {
      "inputs": [
        {
          "internalType": "uint256",
          "name": "",
          "type": "uint256"
        }
      ],
      "name": "artworks",
      "outputs": [
        {
          "internalType": "string",
          "name": "name",
          "type": "string"
        },
        {
          "internalType": "uint256",
          "name": "gene",
          "type": "uint256"
        },
        {
          "internalType": "uint32",
          "name": "createDate",
          "type": "uint32"
        }
      ],
      "stateMutability": "view",
      "type": "function",
      "constant": true
    },
    {
      "inputs": [],
      "name": "owner",
      "outputs": [
        {
          "internalType": "address",
          "name": "",
          "type": "address"
        }
      ],
      "stateMutability": "view",
      "type": "function",
      "constant": true
    },
    {
      "inputs": [],
      "name": "renounceOwnership",
      "outputs": [],
      "stateMutability": "nonpayable",
      "type": "function"
    },
    {
      "inputs": [
        {
          "internalType": "address",
          "name": "newOwner",
          "type": "address"
        }
      ],
      "name": "transferOwnership",
      "outputs": [],
      "stateMutability": "nonpayable",
      "type": "function"
    },
    {
      "inputs": [
        {
          "internalType": "address",
          "name": "_owner",
          "type": "address"
        }
      ],
      "name": "balanceOf",
      "outputs": [
        {
          "internalType": "uint256",
          "name": "",
          "type": "uint256"
        }
      ],
      "stateMutability": "view",
      "type": "function",
      "constant": true
    },
    {
      "inputs": [
        {
          "internalType": "uint256",
          "name": "_tokenId",
          "type": "uint256"
        }
      ],
      "name": "ownerOf",
      "outputs": [
        {
          "internalType": "address",
          "name": "",
          "type": "address"
        }
      ],
      "stateMutability": "view",
      "type": "function",
      "constant": true
    },
    {
      "inputs": [
        {
          "internalType": "address",
          "name": "_from",
          "type": "address"
        },
        {
          "internalType": "address",
          "name": "_to",
          "type": "address"
        },
        {
          "internalType": "uint256",
          "name": "_tokenId",
          "type": "uint256"
        }
      ],
      "name": "transferFrom",
      "outputs": [],
      "stateMutability": "payable",
      "type": "function",
      "payable": true
    },
    {
      "inputs": [
        {
          "internalType": "address",
          "name": "_approved",
          "type": "address"
        },
        {
          "internalType": "uint256",
          "name": "_tokenId",
          "type": "uint256"
        }
      ],
      "name": "approve",
      "outputs": [],
      "stateMutability": "payable",
      "type": "function",
      "payable": true
    }
  ],
  "bytecode": "0x60806040526010600155600154600a6200001a9190620002aa565b6002553480156200002a57600080fd5b506200004b6200003f6200005160201b60201c565b6200005960201b60201c565b620002fb565b600033905090565b60008060009054906101000a900473ffffffffffffffffffffffffffffffffffffffff169050816000806101000a81548173ffffffffffffffffffffffffffffffffffffffff021916908373ffffffffffffffffffffffffffffffffffffffff1602179055508173ffffffffffffffffffffffffffffffffffffffff168173ffffffffffffffffffffffffffffffffffffffff167f8be0079c531659141344cd1fd0a4f28419497f9722a3daafe3b4186f6b6457e060405160405180910390a35050565b7f4e487b7100000000000000000000000000000000000000000000000000000000600052601160045260246000fd5b60008160011c9050919050565b6000808291508390505b6001851115620001ab578086048111156200018357620001826200011d565b5b6001851615620001935780820291505b8081029050620001a3856200014c565b945062000163565b94509492505050565b600082620001c6576001905062000299565b81620001d6576000905062000299565b8160018114620001ef5760028114620001fa5762000230565b600191505062000299565b60ff8411156200020f576200020e6200011d565b5b8360020a9150848211156200022957620002286200011d565b5b5062000299565b5060208310610133831016604e8410600b84101617156200026a5782820a9050838111156200026457620002636200011d565b5b62000299565b62000279848484600162000159565b925090508184048111156200029357620002926200011d565b5b81810290505b9392505050565b6000819050919050565b6000620002b782620002a0565b9150620002c483620002a0565b9250620002f37fffffffffffffffffffffffffffffffffffffffffffffffffffffffffffffffff8484620001b4565b905092915050565b611680806200030b6000396000f3fe6080604052600436106100915760003560e01c8063715018a611610059578063715018a6146101875780638b2bdf251461019e5780638da5cb5b146101db578063bdd8947314610206578063f2fde38b1461022f57610091565b8063095ea7b31461009657806323b872dd146100b25780634b602673146100ce5780636352211e1461010d57806370a082311461014a575b600080fd5b6100b060048036038101906100ab9190610d3a565b610258565b005b6100cc60048036038101906100c79190610d7a565b610376565b005b3480156100da57600080fd5b506100f560048036038101906100f09190610dcd565b61045a565b60405161010493929190610eb8565b60405180910390f35b34801561011957600080fd5b50610134600480360381019061012f9190610dcd565b61052c565b6040516101419190610f05565b60405180910390f35b34801561015657600080fd5b50610171600480360381019061016c9190610f20565b610569565b60405161017e9190610f4d565b60405180910390f35b34801561019357600080fd5b5061019c6105b2565b005b3480156101aa57600080fd5b506101c560048036038101906101c09190610dcd565b6105c6565b6040516101d29190610f05565b60405180910390f35b3480156101e757600080fd5b506101f06105f9565b6040516101fd9190610f05565b60405180910390f35b34801561021257600080fd5b5061022d6004803603810190610228919061109d565b610622565b005b34801561023b57600080fd5b5061025660048036038101906102519190610f20565b6106a3565b005b806004600082815260200190815260200160002060009054906101000a900473ffffffffffffffffffffffffffffffffffffffff1673ffffffffffffffffffffffffffffffffffffffff163373ffffffffffffffffffffffffffffffffffffffff16146102c457600080fd5b826006600084815260200190815260200160002060006101000a81548173ffffffffffffffffffffffffffffffffffffffff021916908373ffffffffffffffffffffffffffffffffffffffff160217905550818373ffffffffffffffffffffffffffffffffffffffff163373ffffffffffffffffffffffffffffffffffffffff167f8c5be1e5ebec7d5bd14f71427d1e84f3dd0314c0f7b2291e5b200ac8c7c3b92560405160405180910390a4505050565b3373ffffffffffffffffffffffffffffffffffffffff166004600083815260200190815260200160002060009054906101000a900473ffffffffffffffffffffffffffffffffffffffff1673ffffffffffffffffffffffffffffffffffffffff16148061044157503373ffffffffffffffffffffffffffffffffffffffff166006600083815260200190815260200160002060009054906101000a900473ffffffffffffffffffffffffffffffffffffffff1673ffffffffffffffffffffffffffffffffffffffff16145b61044a57600080fd5b610455838383610726565b505050565b6003818154811061046a57600080fd5b906000526020600020906003020160009150905080600001805461048d90611115565b80601f01602080910402602001604051908101604052809291908181526020018280546104b990611115565b80156105065780601f106104db57610100808354040283529160200191610506565b820191906000526020600020905b8154815290600101906020018083116104e957829003601f168201915b5050505050908060010154908060020160009054906101000a900463ffffffff16905083565b60006004600083815260200190815260200160002060009054906101000a900473ffffffffffffffffffffffffffffffffffffffff169050919050565b6000600560008373ffffffffffffffffffffffffffffffffffffffff1673ffffffffffffffffffffffffffffffffffffffff168152602001908152602001600020549050919050565b6105ba610904565b6105c46000610982565b565b60046020528060005260406000206000915054906101000a900473ffffffffffffffffffffffffffffffffffffffff1681565b60008060009054906101000a900473ffffffffffffffffffffffffffffffffffffffff16905090565b6000600560003373ffffffffffffffffffffffffffffffffffffffff1673ffffffffffffffffffffffffffffffffffffffff168152602001908152602001600020541461066e57600080fd5b600061067982610a46565b90506064816106889190611175565b8161069391906111d5565b905061069f8282610a8b565b5050565b6106ab610904565b600073ffffffffffffffffffffffffffffffffffffffff168173ffffffffffffffffffffffffffffffffffffffff160361071a576040517f08c379a00000000000000000000000000000000000000000000000000000000081526004016107119061127b565b60405180910390fd5b61072381610982565b50565b6107796001600560008573ffffffffffffffffffffffffffffffffffffffff1673ffffffffffffffffffffffffffffffffffffffff16815260200190815260200160002054610c5e90919063ffffffff16565b600560008473ffffffffffffffffffffffffffffffffffffffff1673ffffffffffffffffffffffffffffffffffffffff1681526020019081526020016000208190555061080f6001600560003373ffffffffffffffffffffffffffffffffffffffff1673ffffffffffffffffffffffffffffffffffffffff16815260200190815260200160002054610c7490919063ffffffff16565b600560003373ffffffffffffffffffffffffffffffffffffffff1673ffffffffffffffffffffffffffffffffffffffff16815260200190815260200160002081905550816004600083815260200190815260200160002060006101000a81548173ffffffffffffffffffffffffffffffffffffffff021916908373ffffffffffffffffffffffffffffffffffffffff160217905550808273ffffffffffffffffffffffffffffffffffffffff168473ffffffffffffffffffffffffffffffffffffffff167fddf252ad1be2c89b69c2b068fc378daa952ba7f163c4a11628f55a4df523b3ef60405160405180910390a4505050565b61090c610c8a565b73ffffffffffffffffffffffffffffffffffffffff1661092a6105f9565b73ffffffffffffffffffffffffffffffffffffffff1614610980576040517f08c379a0000000000000000000000000000000000000000000000000000000008152600401610977906112e7565b60405180910390fd5b565b60008060009054906101000a900473ffffffffffffffffffffffffffffffffffffffff169050816000806101000a81548173ffffffffffffffffffffffffffffffffffffffff021916908373ffffffffffffffffffffffffffffffffffffffff1602179055508173ffffffffffffffffffffffffffffffffffffffff168173ffffffffffffffffffffffffffffffffffffffff167f8be0079c531659141344cd1fd0a4f28419497f9722a3daafe3b4186f6b6457e060405160405180910390a35050565b60008082604051602001610a5a9190611343565b6040516020818303038152906040528051906020012060001c905060025481610a839190611175565b915050919050565b600360405180606001604052808481526020018381526020014263ffffffff1681525090806001815401808255809150506001900390600052602060002090600302016000909190919091506000820151816000019081610aec9190611506565b506020820151816001015560408201518160020160006101000a81548163ffffffff021916908363ffffffff160217905550505060006001600380549050610b3491906111d5565b9050336004600083815260200190815260200160002060006101000a81548173ffffffffffffffffffffffffffffffffffffffff021916908373ffffffffffffffffffffffffffffffffffffffff160217905550610bdb6001600560003373ffffffffffffffffffffffffffffffffffffffff1673ffffffffffffffffffffffffffffffffffffffff16815260200190815260200160002054610c5e90919063ffffffff16565b600560003373ffffffffffffffffffffffffffffffffffffffff1673ffffffffffffffffffffffffffffffffffffffff168152602001908152602001600020819055507fa286313a149e0cea81e11106b86767ca305132b605c31895a0c5a5295f2aeb73818484604051610c51939291906115d8565b60405180910390a1505050565b60008183610c6c9190611616565b905092915050565b60008183610c8291906111d5565b905092915050565b600033905090565b6000604051905090565b600080fd5b600080fd5b600073ffffffffffffffffffffffffffffffffffffffff82169050919050565b6000610cd182610ca6565b9050919050565b610ce181610cc6565b8114610cec57600080fd5b50565b600081359050610cfe81610cd8565b92915050565b6000819050919050565b610d1781610d04565b8114610d2257600080fd5b50565b600081359050610d3481610d0e565b92915050565b60008060408385031215610d5157610d50610c9c565b5b6000610d5f85828601610cef565b9250506020610d7085828601610d25565b9150509250929050565b600080600060608486031215610d9357610d92610c9c565b5b6000610da186828701610cef565b9350506020610db286828701610cef565b9250506040610dc386828701610d25565b9150509250925092565b600060208284031215610de357610de2610c9c565b5b6000610df184828501610d25565b91505092915050565b600081519050919050565b600082825260208201905092915050565b60005b83811015610e34578082015181840152602081019050610e19565b60008484015250505050565b6000601f19601f8301169050919050565b6000610e5c82610dfa565b610e668185610e05565b9350610e76818560208601610e16565b610e7f81610e40565b840191505092915050565b610e9381610d04565b82525050565b600063ffffffff82169050919050565b610eb281610e99565b82525050565b60006060820190508181036000830152610ed28186610e51565b9050610ee16020830185610e8a565b610eee6040830184610ea9565b949350505050565b610eff81610cc6565b82525050565b6000602082019050610f1a6000830184610ef6565b92915050565b600060208284031215610f3657610f35610c9c565b5b6000610f4484828501610cef565b91505092915050565b6000602082019050610f626000830184610e8a565b92915050565b600080fd5b600080fd5b7f4e487b7100000000000000000000000000000000000000000000000000000000600052604160045260246000fd5b610faa82610e40565b810181811067ffffffffffffffff82111715610fc957610fc8610f72565b5b80604052505050565b6000610fdc610c92565b9050610fe88282610fa1565b919050565b600067ffffffffffffffff82111561100857611007610f72565b5b61101182610e40565b9050602081019050919050565b82818337600083830152505050565b600061104061103b84610fed565b610fd2565b90508281526020810184848401111561105c5761105b610f6d565b5b61106784828561101e565b509392505050565b600082601f83011261108457611083610f68565b5b813561109484826020860161102d565b91505092915050565b6000602082840312156110b3576110b2610c9c565b5b600082013567ffffffffffffffff8111156110d1576110d0610ca1565b5b6110dd8482850161106f565b91505092915050565b7f4e487b7100000000000000000000000000000000000000000000000000000000600052602260045260246000fd5b6000600282049050600182168061112d57607f821691505b6020821081036111405761113f6110e6565b5b50919050565b7f4e487b7100000000000000000000000000000000000000000000000000000000600052601260045260246000fd5b600061118082610d04565b915061118b83610d04565b92508261119b5761119a611146565b5b828206905092915050565b7f4e487b7100000000000000000000000000000000000000000000000000000000600052601160045260246000fd5b60006111e082610d04565b91506111eb83610d04565b9250828203905081811115611203576112026111a6565b5b92915050565b7f4f776e61626c653a206e6577206f776e657220697320746865207a65726f206160008201527f6464726573730000000000000000000000000000000000000000000000000000602082015250565b6000611265602683610e05565b915061127082611209565b604082019050919050565b6000602082019050818103600083015261129481611258565b9050919050565b7f4f776e61626c653a2063616c6c6572206973206e6f7420746865206f776e6572600082015250565b60006112d1602083610e05565b91506112dc8261129b565b602082019050919050565b60006020820190508181036000830152611300816112c4565b9050919050565b600081905092915050565b600061131d82610dfa565b6113278185611307565b9350611337818560208601610e16565b80840191505092915050565b600061134f8284611312565b915081905092915050565b60008190508160005260206000209050919050565b60006020601f8301049050919050565b600082821b905092915050565b6000600883026113bc7fffffffffffffffffffffffffffffffffffffffffffffffffffffffffffffffff8261137f565b6113c6868361137f565b95508019841693508086168417925050509392505050565b6000819050919050565b60006114036113fe6113f984610d04565b6113de565b610d04565b9050919050565b6000819050919050565b61141d836113e8565b6114316114298261140a565b84845461138c565b825550505050565b600090565b611446611439565b611451818484611414565b505050565b5b818110156114755761146a60008261143e565b600181019050611457565b5050565b601f8211156114ba5761148b8161135a565b6114948461136f565b810160208510156114a3578190505b6114b76114af8561136f565b830182611456565b50505b505050565b600082821c905092915050565b60006114dd600019846008026114bf565b1980831691505092915050565b60006114f683836114cc565b9150826002028217905092915050565b61150f82610dfa565b67ffffffffffffffff81111561152857611527610f72565b5b6115328254611115565b61153d828285611479565b600060209050601f831160018114611570576000841561155e578287015190505b61156885826114ea565b8655506115d0565b601f19841661157e8661135a565b60005b828110156115a657848901518255600182019150602085019450602081019050611581565b868310156115c357848901516115bf601f8916826114cc565b8355505b6001600288020188555050505b505050505050565b60006060820190506115ed6000830186610e8a565b81810360208301526115ff8185610e51565b905061160e6040830184610e8a565b949350505050565b600061162182610d04565b915061162c83610d04565b9250828201905080821115611644576116436111a6565b5b9291505056fea26469706673582212207c428a8ca618df15449eabdf4e35769cc57cdaa04cb33d1b3900dd30ad716cc464736f6c63430008130033",
  "immutableReferences": {},
  "source": "//SPDX-License-Identifier: MIT\r\npragma solidity ^0.8.0;\r\n\r\nimport \"./safemath.sol\";\r\nimport \"./artistryfactory.sol\";\r\nimport \"./erc721.sol\";\r\n\r\ncontract ArtworkOwnership is ArtistryFactory{\r\n\r\nevent Transfer(address indexed _from, address indexed _to, uint256 indexed _tokenId);\r\nevent Approval(address indexed _owner, address indexed _approved, uint256 indexed _tokenId);\r\n\r\nusing SafeMath for uint256;\r\n\r\nmapping (uint => address) artworksApprovals;\r\n\r\nfunction balanceOf(address _owner) external view returns (uint256) {\r\n    return ownerArtworkCount[_owner];\r\n  }\r\n\r\nfunction ownerOf(uint256 _tokenId) external view returns (address) {\r\n    return artworkToOwner[_tokenId];\r\n  }\r\n\r\nfunction _transfer(address _from, address _to, uint256 _tokenId) private {\r\n    ownerArtworkCount[_to] = ownerArtworkCount[_to].add(1);\r\n    ownerArtworkCount[msg.sender] = ownerArtworkCount[msg.sender].sub(1);\r\n    artworkToOwner[_tokenId] = _to;\r\n    emit Transfer(_from, _to, _tokenId);\r\n  }\r\n\r\nfunction transferFrom(address _from, address _to, uint256 _tokenId) external payable {\r\n    require (artworkToOwner[_tokenId] == msg.sender || artworksApprovals[_tokenId] == msg.sender);\r\n    _transfer(_from, _to, _tokenId);\r\n  }\r\n\r\n  function approve(address _approved, uint256 _tokenId) external payable onlyOwnerOf(_tokenId) {\r\n    artworksApprovals[_tokenId] = _approved;\r\n    emit Approval(msg.sender, _approved, _tokenId);\r\n  }\r\n\r\n}",
  "sourcePath": "C:\\Users\\Denchihin\\Desktop\\workspace\\LatinJazz\\contracts\\artworkownership.sol",
  "compiler": {
    "name": "solc",
    "version": "0.8.19+commit.7dd6d404.Emscripten.clang"
  },
  "schemaVersion": "3.4.13",
  "updatedAt": "2023-04-10T13:55:50.286Z",
  "networkType": "ethereum",
  "devdoc": {
    "kind": "dev",
    "methods": {
      "owner()": {
        "details": "Returns the address of the current owner."
      },
      "renounceOwnership()": {
        "details": "Leaves the contract without owner. It will not be possible to call `onlyOwner` functions. Can only be called by the current owner. NOTE: Renouncing ownership will leave the contract without an owner, thereby disabling any functionality that is only available to the owner."
      },
      "transferOwnership(address)": {
        "details": "Transfers ownership of the contract to a new account (`newOwner`). Can only be called by the current owner."
      }
    },
    "version": 1
  },
  "userdoc": {
    "kind": "user",
    "methods": {},
    "version": 1
  }
}